{
  "_format": "hh3-artifact-1",
  "contractName": "QuizPersonalityToken",
  "sourceName": "contracts/QuizPersonalityToken.sol",
  "abi": [
    {
      "inputs": [
        {
          "internalType": "string",
          "name": "_uri",
          "type": "string"
        }
      ],
      "stateMutability": "nonpayable",
      "type": "constructor"
    },
    {
      "inputs": [],
      "name": "AccessControlBadConfirmation",
      "type": "error"
    },
    {
      "inputs": [
        {
          "internalType": "address",
          "name": "account",
          "type": "address"
        },
        {
          "internalType": "bytes32",
          "name": "neededRole",
          "type": "bytes32"
        }
      ],
      "name": "AccessControlUnauthorizedAccount",
      "type": "error"
    },
    {
      "inputs": [
        {
          "internalType": "address",
          "name": "sender",
          "type": "address"
        },
        {
          "internalType": "uint256",
          "name": "balance",
          "type": "uint256"
        },
        {
          "internalType": "uint256",
          "name": "needed",
          "type": "uint256"
        },
        {
          "internalType": "uint256",
          "name": "tokenId",
          "type": "uint256"
        }
      ],
      "name": "ERC1155InsufficientBalance",
      "type": "error"
    },
    {
      "inputs": [
        {
          "internalType": "address",
          "name": "approver",
          "type": "address"
        }
      ],
      "name": "ERC1155InvalidApprover",
      "type": "error"
    },
    {
      "inputs": [
        {
          "internalType": "uint256",
          "name": "idsLength",
          "type": "uint256"
        },
        {
          "internalType": "uint256",
          "name": "valuesLength",
          "type": "uint256"
        }
      ],
      "name": "ERC1155InvalidArrayLength",
      "type": "error"
    },
    {
      "inputs": [
        {
          "internalType": "address",
          "name": "operator",
          "type": "address"
        }
      ],
      "name": "ERC1155InvalidOperator",
      "type": "error"
    },
    {
      "inputs": [
        {
          "internalType": "address",
          "name": "receiver",
          "type": "address"
        }
      ],
      "name": "ERC1155InvalidReceiver",
      "type": "error"
    },
    {
      "inputs": [
        {
          "internalType": "address",
          "name": "sender",
          "type": "address"
        }
      ],
      "name": "ERC1155InvalidSender",
      "type": "error"
    },
    {
      "inputs": [
        {
          "internalType": "address",
          "name": "operator",
          "type": "address"
        },
        {
          "internalType": "address",
          "name": "owner",
          "type": "address"
        }
      ],
      "name": "ERC1155MissingApprovalForAll",
      "type": "error"
    },
    {
      "anonymous": false,
      "inputs": [
        {
          "indexed": true,
          "internalType": "address",
          "name": "account",
          "type": "address"
        },
        {
          "indexed": true,
          "internalType": "address",
          "name": "operator",
          "type": "address"
        },
        {
          "indexed": false,
          "internalType": "bool",
          "name": "approved",
          "type": "bool"
        }
      ],
      "name": "ApprovalForAll",
      "type": "event"
    },
    {
      "anonymous": false,
      "inputs": [
        {
          "indexed": true,
          "internalType": "bytes32",
          "name": "role",
          "type": "bytes32"
        },
        {
          "indexed": true,
          "internalType": "bytes32",
          "name": "previousAdminRole",
          "type": "bytes32"
        },
        {
          "indexed": true,
          "internalType": "bytes32",
          "name": "newAdminRole",
          "type": "bytes32"
        }
      ],
      "name": "RoleAdminChanged",
      "type": "event"
    },
    {
      "anonymous": false,
      "inputs": [
        {
          "indexed": true,
          "internalType": "bytes32",
          "name": "role",
          "type": "bytes32"
        },
        {
          "indexed": true,
          "internalType": "address",
          "name": "account",
          "type": "address"
        },
        {
          "indexed": true,
          "internalType": "address",
          "name": "sender",
          "type": "address"
        }
      ],
      "name": "RoleGranted",
      "type": "event"
    },
    {
      "anonymous": false,
      "inputs": [
        {
          "indexed": true,
          "internalType": "bytes32",
          "name": "role",
          "type": "bytes32"
        },
        {
          "indexed": true,
          "internalType": "address",
          "name": "account",
          "type": "address"
        },
        {
          "indexed": true,
          "internalType": "address",
          "name": "sender",
          "type": "address"
        }
      ],
      "name": "RoleRevoked",
      "type": "event"
    },
    {
      "anonymous": false,
      "inputs": [
        {
          "indexed": true,
          "internalType": "address",
          "name": "user",
          "type": "address"
        },
        {
          "indexed": false,
          "internalType": "uint256",
          "name": "tokenId",
          "type": "uint256"
        },
        {
          "indexed": false,
          "internalType": "uint256",
          "name": "quizId",
          "type": "uint256"
        }
      ],
      "name": "TokenMinted",
      "type": "event"
    },
    {
      "anonymous": false,
      "inputs": [
        {
          "indexed": true,
          "internalType": "address",
          "name": "operator",
          "type": "address"
        },
        {
          "indexed": true,
          "internalType": "address",
          "name": "from",
          "type": "address"
        },
        {
          "indexed": true,
          "internalType": "address",
          "name": "to",
          "type": "address"
        },
        {
          "indexed": false,
          "internalType": "uint256[]",
          "name": "ids",
          "type": "uint256[]"
        },
        {
          "indexed": false,
          "internalType": "uint256[]",
          "name": "values",
          "type": "uint256[]"
        }
      ],
      "name": "TransferBatch",
      "type": "event"
    },
    {
      "anonymous": false,
      "inputs": [
        {
          "indexed": true,
          "internalType": "address",
          "name": "operator",
          "type": "address"
        },
        {
          "indexed": true,
          "internalType": "address",
          "name": "from",
          "type": "address"
        },
        {
          "indexed": true,
          "internalType": "address",
          "name": "to",
          "type": "address"
        },
        {
          "indexed": false,
          "internalType": "uint256",
          "name": "id",
          "type": "uint256"
        },
        {
          "indexed": false,
          "internalType": "uint256",
          "name": "value",
          "type": "uint256"
        }
      ],
      "name": "TransferSingle",
      "type": "event"
    },
    {
      "anonymous": false,
      "inputs": [
        {
          "indexed": false,
          "internalType": "string",
          "name": "value",
          "type": "string"
        },
        {
          "indexed": true,
          "internalType": "uint256",
          "name": "id",
          "type": "uint256"
        }
      ],
      "name": "URI",
      "type": "event"
    },
    {
      "inputs": [],
      "name": "DEFAULT_ADMIN_ROLE",
      "outputs": [
        {
          "internalType": "bytes32",
          "name": "",
          "type": "bytes32"
        }
      ],
      "stateMutability": "view",
      "type": "function"
    },
    {
      "inputs": [],
      "name": "QUIZ_MANAGER_ROLE",
      "outputs": [
        {
          "internalType": "bytes32",
          "name": "",
          "type": "bytes32"
        }
      ],
      "stateMutability": "view",
      "type": "function"
    },
    {
      "inputs": [
        {
          "internalType": "address",
          "name": "account",
          "type": "address"
        },
        {
          "internalType": "uint256",
          "name": "id",
          "type": "uint256"
        }
      ],
      "name": "balanceOf",
      "outputs": [
        {
          "internalType": "uint256",
          "name": "",
          "type": "uint256"
        }
      ],
      "stateMutability": "view",
      "type": "function"
    },
    {
      "inputs": [
        {
          "internalType": "address[]",
          "name": "accounts",
          "type": "address[]"
        },
        {
          "internalType": "uint256[]",
          "name": "ids",
          "type": "uint256[]"
        }
      ],
      "name": "balanceOfBatch",
      "outputs": [
        {
          "internalType": "uint256[]",
          "name": "",
          "type": "uint256[]"
        }
      ],
      "stateMutability": "view",
      "type": "function"
    },
    {
      "inputs": [
        {
          "internalType": "string",
          "name": "_newCollectionCID",
          "type": "string"
        }
      ],
      "name": "createNewCollection",
      "outputs": [],
      "stateMutability": "nonpayable",
      "type": "function"
    },
    {
      "inputs": [
        {
          "internalType": "bytes32",
          "name": "role",
          "type": "bytes32"
        }
      ],
      "name": "getRoleAdmin",
      "outputs": [
        {
          "internalType": "bytes32",
          "name": "",
          "type": "bytes32"
        }
      ],
      "stateMutability": "view",
      "type": "function"
    },
    {
      "inputs": [
        {
          "internalType": "bytes32",
          "name": "role",
          "type": "bytes32"
        },
        {
          "internalType": "address",
          "name": "account",
          "type": "address"
        }
      ],
      "name": "grantRole",
      "outputs": [],
      "stateMutability": "nonpayable",
      "type": "function"
    },
    {
      "inputs": [
        {
          "internalType": "bytes32",
          "name": "role",
          "type": "bytes32"
        },
        {
          "internalType": "address",
          "name": "account",
          "type": "address"
        }
      ],
      "name": "hasRole",
      "outputs": [
        {
          "internalType": "bool",
          "name": "",
          "type": "bool"
        }
      ],
      "stateMutability": "view",
      "type": "function"
    },
    {
      "inputs": [
        {
          "internalType": "address",
          "name": "account",
          "type": "address"
        },
        {
          "internalType": "address",
          "name": "operator",
          "type": "address"
        }
      ],
      "name": "isApprovedForAll",
      "outputs": [
        {
          "internalType": "bool",
          "name": "",
          "type": "bool"
        }
      ],
      "stateMutability": "view",
      "type": "function"
    },
    {
      "inputs": [
        {
          "internalType": "address",
          "name": "to",
          "type": "address"
        },
        {
          "internalType": "uint256",
          "name": "tokenId",
          "type": "uint256"
        }
      ],
      "name": "mint",
      "outputs": [],
      "stateMutability": "nonpayable",
      "type": "function"
    },
    {
      "inputs": [],
      "name": "name",
      "outputs": [
        {
          "internalType": "string",
          "name": "",
          "type": "string"
        }
      ],
      "stateMutability": "view",
      "type": "function"
    },
    {
      "inputs": [
        {
          "internalType": "bytes32",
          "name": "role",
          "type": "bytes32"
        },
        {
          "internalType": "address",
          "name": "callerConfirmation",
          "type": "address"
        }
      ],
      "name": "renounceRole",
      "outputs": [],
      "stateMutability": "nonpayable",
      "type": "function"
    },
    {
      "inputs": [
        {
          "internalType": "bytes32",
          "name": "role",
          "type": "bytes32"
        },
        {
          "internalType": "address",
          "name": "account",
          "type": "address"
        }
      ],
      "name": "revokeRole",
      "outputs": [],
      "stateMutability": "nonpayable",
      "type": "function"
    },
    {
      "inputs": [
        {
          "internalType": "address",
          "name": "from",
          "type": "address"
        },
        {
          "internalType": "address",
          "name": "to",
          "type": "address"
        },
        {
          "internalType": "uint256[]",
          "name": "ids",
          "type": "uint256[]"
        },
        {
          "internalType": "uint256[]",
          "name": "values",
          "type": "uint256[]"
        },
        {
          "internalType": "bytes",
          "name": "data",
          "type": "bytes"
        }
      ],
      "name": "safeBatchTransferFrom",
      "outputs": [],
      "stateMutability": "nonpayable",
      "type": "function"
    },
    {
      "inputs": [
        {
          "internalType": "address",
          "name": "from",
          "type": "address"
        },
        {
          "internalType": "address",
          "name": "to",
          "type": "address"
        },
        {
          "internalType": "uint256",
          "name": "id",
          "type": "uint256"
        },
        {
          "internalType": "uint256",
          "name": "value",
          "type": "uint256"
        },
        {
          "internalType": "bytes",
          "name": "data",
          "type": "bytes"
        }
      ],
      "name": "safeTransferFrom",
      "outputs": [],
      "stateMutability": "nonpayable",
      "type": "function"
    },
    {
      "inputs": [
        {
          "internalType": "address",
          "name": "operator",
          "type": "address"
        },
        {
          "internalType": "bool",
          "name": "approved",
          "type": "bool"
        }
      ],
      "name": "setApprovalForAll",
      "outputs": [],
      "stateMutability": "nonpayable",
      "type": "function"
    },
    {
      "inputs": [
        {
          "internalType": "bytes4",
          "name": "interfaceId",
          "type": "bytes4"
        }
      ],
      "name": "supportsInterface",
      "outputs": [
        {
          "internalType": "bool",
          "name": "",
          "type": "bool"
        }
      ],
      "stateMutability": "view",
      "type": "function"
    },
    {
      "inputs": [],
      "name": "symbol",
      "outputs": [
        {
          "internalType": "string",
          "name": "",
          "type": "string"
        }
      ],
      "stateMutability": "view",
      "type": "function"
    },
    {
      "inputs": [
        {
          "internalType": "uint256",
          "name": "tokenId",
          "type": "uint256"
        }
      ],
      "name": "uri",
      "outputs": [
        {
          "internalType": "string",
          "name": "",
          "type": "string"
        }
      ],
      "stateMutability": "view",
      "type": "function"
    }
  ],
  "bytecode": "0x60c0604052601660809081527f5175697a20506572736f6e616c69747920546f6b656e0000000000000000000060a05260059061003c908261023c565b5060408051808201909152600381526214541560ea1b6020820152600690610064908261023c565b50348015610070575f5ffd5b50604051611d6a380380611d6a83398101604081905261008f916102f6565b80610099816100e7565b506100a45f336100f7565b50600480546001810182555f919091527f8a35acfbc15ff81a39ae7d344fd709f28e8600b4aa8c65c6b64bfe7fe36bd19b016100e0828261023c565b50506103a6565b60026100f3828261023c565b5050565b5f8281526003602090815260408083206001600160a01b038516845290915281205460ff1661019b575f8381526003602090815260408083206001600160a01b03861684529091529020805460ff191660011790556101533390565b6001600160a01b0316826001600160a01b0316847f2f8788117e7eff1d82e926ec794901d17c78024a50270940304540a733656f0d60405160405180910390a450600161019e565b505f5b92915050565b634e487b7160e01b5f52604160045260245ffd5b600181811c908216806101cc57607f821691505b6020821081036101ea57634e487b7160e01b5f52602260045260245ffd5b50919050565b601f82111561023757805f5260205f20601f840160051c810160208510156102155750805b601f840160051c820191505b81811015610234575f8155600101610221565b50505b505050565b81516001600160401b03811115610255576102556101a4565b6102698161026384546101b8565b846101f0565b6020601f82116001811461029b575f83156102845750848201515b5f19600385901b1c1916600184901b178455610234565b5f84815260208120601f198516915b828110156102ca57878501518255602094850194600190920191016102aa565b50848210156102e757868401515f19600387901b60f8161c191681555b50505050600190811b01905550565b5f60208284031215610306575f5ffd5b81516001600160401b0381111561031b575f5ffd5b8201601f8101841361032b575f5ffd5b80516001600160401b03811115610344576103446101a4565b604051601f8201601f19908116603f011681016001600160401b0381118282101715610372576103726101a4565b604052818152828201602001861015610389575f5ffd5b8160208401602083015e5f91810160200191909152949350505050565b6119b7806103b35f395ff3fe608060405234801561000f575f5ffd5b506004361061011b575f3560e01c806340c10f19116100a9578063a217fddf1161006e578063a217fddf14610275578063a22cb4651461027c578063d547741f1461028f578063e985e9c5146102a2578063f242432a146102b5575f5ffd5b806340c10f191461020057806344920d64146102135780634e1273f41461023a57806391d148541461025a57806395d89b411461026d575f5ffd5b80631270a638116100ef5780631270a63814610190578063248a9ca3146101a55780632eb2c2d6146101c75780632f2ff15d146101da57806336568abe146101ed575f5ffd5b8062fdd58e1461011f57806301ffc9a71461014557806306fdde03146101685780630e89341c1461017d575b5f5ffd5b61013261012d366004611162565b6102c8565b6040519081526020015b60405180910390f35b61015861015336600461119f565b6102ef565b604051901515815260200161013c565b6101706102f9565b60405161013c91906111ef565b61017061018b366004611201565b610385565b6101a361019e3660046112b4565b610455565b005b6101326101b3366004611201565b5f9081526003602052604090206001015490565b6101a36101d53660046113aa565b6104bf565b6101a36101e8366004611456565b610526565b6101a36101fb366004611456565b610550565b6101a361020e366004611162565b610583565b6101327f8cbba69751e2ad12031a020b3cdf7f24f20225e09530064c9ad9fa187f4075ca81565b61024d610248366004611480565b610622565b60405161013c919061157b565b610158610268366004611456565b6106ec565b610170610716565b6101325f81565b6101a361028a36600461158d565b610723565b6101a361029d366004611456565b610732565b6101586102b03660046115c6565b610756565b6101a36102c33660046115ee565b610783565b5f818152602081815260408083206001600160a01b03861684529091529020545b92915050565b5f6102e9826107e2565b6005805461030690611641565b80601f016020809104026020016040519081016040528092919081815260200182805461033290611641565b801561037d5780601f106103545761010080835404028352916020019161037d565b820191905f5260205f20905b81548152906001019060200180831161036057829003601f168201915b505050505081565b60605f6103946103e884611679565b90505f600482815481106103aa576103aa611698565b905f5260205f200180546103bd90611641565b9050116104095760405162461bcd60e51b81526020600482015260156024820152744d657461646174612055524920697320656d70747960581b60448201526064015b60405180910390fd5b6004818154811061041c5761041c611698565b905f5260205f200161042d84610806565b60405160200161043e9291906116c3565b604051602081830303815290604052915050919050565b7f8cbba69751e2ad12031a020b3cdf7f24f20225e09530064c9ad9fa187f4075ca61047f81610895565b600480546001810182555f919091527f8a35acfbc15ff81a39ae7d344fd709f28e8600b4aa8c65c6b64bfe7fe36bd19b016104ba83826117c8565b505050565b336001600160a01b03861681148015906104e057506104de8682610756565b155b156105115760405163711bec9160e11b81526001600160a01b03808316600483015287166024820152604401610400565b61051e86868686866108a2565b505050505050565b5f8281526003602052604090206001015461054081610895565b61054a8383610907565b50505050565b6001600160a01b03811633146105795760405163334bd91960e11b815260040160405180910390fd5b6104ba8282610998565b7f8cbba69751e2ad12031a020b3cdf7f24f20225e09530064c9ad9fa187f4075ca6105ad81610895565b6105c88383600160405180602001604052805f815250610a03565b5f6105d56103e884611679565b60408051858152602081018390529192506001600160a01b038616917f96234cb3d6c373a1aaa06497a540bc166d4b0359243a088eaf95e21d7253d0be910160405180910390a250505050565b606081518351146106535781518351604051635b05999160e01b815260048101929092526024820152604401610400565b5f83516001600160401b0381111561066d5761066d611218565b604051908082528060200260200182016040528015610696578160200160208202803683370190505b5090505f5b84518110156106e4576020808202860101516106bf906020808402870101516102c8565b8282815181106106d1576106d1611698565b602090810291909101015260010161069b565b509392505050565b5f9182526003602090815260408084206001600160a01b0393909316845291905290205460ff1690565b6006805461030690611641565b61072e338383610a5e565b5050565b5f8281526003602052604090206001015461074c81610895565b61054a8383610998565b6001600160a01b039182165f90815260016020908152604080832093909416825291909152205460ff1690565b336001600160a01b03861681148015906107a457506107a28682610756565b155b156107d55760405163711bec9160e11b81526001600160a01b03808316600483015287166024820152604401610400565b61051e8686868686610af2565b5f6001600160e01b03198216637965db0b60e01b14806102e957506102e982610b7e565b60605f61081283610bcd565b60010190505f816001600160401b0381111561083057610830611218565b6040519080825280601f01601f19166020018201604052801561085a576020820181803683370190505b5090508181016020015b5f19016f181899199a1a9b1b9c1cb0b131b232b360811b600a86061a8153600a850494508461086457509392505050565b61089f8133610ca4565b50565b6001600160a01b0384166108cb57604051632bfa23e760e11b81525f6004820152602401610400565b6001600160a01b0385166108f357604051626a0d4560e21b81525f6004820152602401610400565b6109008585858585610cdd565b5050505050565b5f61091283836106ec565b610991575f8381526003602090815260408083206001600160a01b03861684529091529020805460ff191660011790556109493390565b6001600160a01b0316826001600160a01b0316847f2f8788117e7eff1d82e926ec794901d17c78024a50270940304540a733656f0d60405160405180910390a45060016102e9565b505f6102e9565b5f6109a383836106ec565b15610991575f8381526003602090815260408083206001600160a01b0386168085529252808320805460ff1916905551339286917ff6391f5c32d9c69d2a47ea670b442974b53935d1edc7fd64eb21e047a839171b9190a45060016102e9565b6001600160a01b038416610a2c57604051632bfa23e760e11b81525f6004820152602401610400565b6040805160018082526020820186905281830190815260608201859052608082019092529061051e5f87848487610cdd565b6001600160a01b038216610a865760405162ced3e160e81b81525f6004820152602401610400565b6001600160a01b038381165f81815260016020908152604080832094871680845294825291829020805460ff191686151590811790915591519182527f17307eab39ab6107e8899845ad3d59bd9653f200f220920489ca2b5937696c31910160405180910390a3505050565b6001600160a01b038416610b1b57604051632bfa23e760e11b81525f6004820152602401610400565b6001600160a01b038516610b4357604051626a0d4560e21b81525f6004820152602401610400565b60408051600180825260208201869052818301908152606082018590526080820190925290610b758787848487610cdd565b50505050505050565b5f6001600160e01b03198216636cdb3d1360e11b1480610bae57506001600160e01b031982166303a24d0760e21b145b806102e957506301ffc9a760e01b6001600160e01b03198316146102e9565b5f8072184f03e93ff9f4daa797ed6e38ed64bf6a1f0160401b8310610c0b5772184f03e93ff9f4daa797ed6e38ed64bf6a1f0160401b830492506040015b6d04ee2d6d415b85acef81000000008310610c37576d04ee2d6d415b85acef8100000000830492506020015b662386f26fc100008310610c5557662386f26fc10000830492506010015b6305f5e1008310610c6d576305f5e100830492506008015b6127108310610c8157612710830492506004015b60648310610c93576064830492506002015b600a83106102e95760010192915050565b610cae82826106ec565b61072e5760405163e2517d3f60e01b81526001600160a01b038216600482015260248101839052604401610400565b610ce985858585610d30565b6001600160a01b038416156109005782513390600103610d225760208481015190840151610d1b838989858589610f3f565b505061051e565b61051e818787878787611060565b8051825114610d5f5781518151604051635b05999160e01b815260048101929092526024820152604401610400565b335f5b8351811015610e61576020818102858101820151908501909101516001600160a01b03881615610e13575f828152602081815260408083206001600160a01b038c16845290915290205481811015610ded576040516303dee4c560e01b81526001600160a01b038a166004820152602481018290526044810183905260648101849052608401610400565b5f838152602081815260408083206001600160a01b038d16845290915290209082900390555b6001600160a01b03871615610e57575f828152602081815260408083206001600160a01b038b16845290915281208054839290610e51908490611882565b90915550505b5050600101610d62565b508251600103610ee15760208301515f906020840151909150856001600160a01b0316876001600160a01b0316846001600160a01b03167fc3d58168c5ae7397731d063d5bbf3d657854427343f4c083240f7aacaa2d0f628585604051610ed2929190918252602082015260400190565b60405180910390a45050610900565b836001600160a01b0316856001600160a01b0316826001600160a01b03167f4a39dc06d4c0dbc64b70af90fd698a233a518aa5d07e595d983b8c0526c8f7fb8686604051610f309291906118a1565b60405180910390a45050505050565b6001600160a01b0384163b1561051e5760405163f23a6e6160e01b81526001600160a01b0385169063f23a6e6190610f8390899089908890889088906004016118c5565b6020604051808303815f875af1925050508015610fbd575060408051601f3d908101601f19168201909252610fba91810190611909565b60015b611024573d808015610fea576040519150601f19603f3d011682016040523d82523d5f602084013e610fef565b606091505b5080515f0361101c57604051632bfa23e760e11b81526001600160a01b0386166004820152602401610400565b805160208201fd5b6001600160e01b0319811663f23a6e6160e01b14610b7557604051632bfa23e760e11b81526001600160a01b0386166004820152602401610400565b6001600160a01b0384163b1561051e5760405163bc197c8160e01b81526001600160a01b0385169063bc197c81906110a49089908990889088908890600401611924565b6020604051808303815f875af19250505080156110de575060408051601f3d908101601f191682019092526110db91810190611909565b60015b61110b573d808015610fea576040519150601f19603f3d011682016040523d82523d5f602084013e610fef565b6001600160e01b0319811663bc197c8160e01b14610b7557604051632bfa23e760e11b81526001600160a01b0386166004820152602401610400565b80356001600160a01b038116811461115d575f5ffd5b919050565b5f5f60408385031215611173575f5ffd5b61117c83611147565b946020939093013593505050565b6001600160e01b03198116811461089f575f5ffd5b5f602082840312156111af575f5ffd5b81356111ba8161118a565b9392505050565b5f81518084528060208401602086015e5f602082860101526020601f19601f83011685010191505092915050565b602081525f6111ba60208301846111c1565b5f60208284031215611211575f5ffd5b5035919050565b634e487b7160e01b5f52604160045260245ffd5b604051601f8201601f191681016001600160401b038111828210171561125457611254611218565b604052919050565b5f5f6001600160401b0384111561127557611275611218565b50601f8301601f191660200161128a8161122c565b91505082815283838301111561129e575f5ffd5b828260208301375f602084830101529392505050565b5f602082840312156112c4575f5ffd5b81356001600160401b038111156112d9575f5ffd5b8201601f810184136112e9575f5ffd5b6112f88482356020840161125c565b949350505050565b5f6001600160401b0382111561131857611318611218565b5060051b60200190565b5f82601f830112611331575f5ffd5b813561134461133f82611300565b61122c565b8082825260208201915060208360051b860101925085831115611365575f5ffd5b602085015b8381101561138257803583526020928301920161136a565b5095945050505050565b5f82601f83011261139b575f5ffd5b6111ba8383356020850161125c565b5f5f5f5f5f60a086880312156113be575f5ffd5b6113c786611147565b94506113d560208701611147565b935060408601356001600160401b038111156113ef575f5ffd5b6113fb88828901611322565b93505060608601356001600160401b03811115611416575f5ffd5b61142288828901611322565b92505060808601356001600160401b0381111561143d575f5ffd5b6114498882890161138c565b9150509295509295909350565b5f5f60408385031215611467575f5ffd5b8235915061147760208401611147565b90509250929050565b5f5f60408385031215611491575f5ffd5b82356001600160401b038111156114a6575f5ffd5b8301601f810185136114b6575f5ffd5b80356114c461133f82611300565b8082825260208201915060208360051b8501019250878311156114e5575f5ffd5b6020840193505b8284101561150e576114fd84611147565b8252602093840193909101906114ec565b945050505060208301356001600160401b0381111561152b575f5ffd5b61153785828601611322565b9150509250929050565b5f8151808452602084019350602083015f5b82811015611571578151865260209586019590910190600101611553565b5093949350505050565b602081525f6111ba6020830184611541565b5f5f6040838503121561159e575f5ffd5b6115a783611147565b9150602083013580151581146115bb575f5ffd5b809150509250929050565b5f5f604083850312156115d7575f5ffd5b6115e083611147565b915061147760208401611147565b5f5f5f5f5f60a08688031215611602575f5ffd5b61160b86611147565b945061161960208701611147565b9350604086013592506060860135915060808601356001600160401b0381111561143d575f5ffd5b600181811c9082168061165557607f821691505b60208210810361167357634e487b7160e01b5f52602260045260245ffd5b50919050565b5f8261169357634e487b7160e01b5f52601260045260245ffd5b500490565b634e487b7160e01b5f52603260045260245ffd5b5f81518060208401855e5f93019283525090919050565b7468747470733a2f2f697066732e696f2f697066732f60581b81525f5f84546116eb81611641565b600182168015611702576001811461171d57611750565b60ff1983166015870152601582151583028701019350611750565b875f5260205f205f5b8381101561174557815488820160150152600190910190602001611726565b505060158287010193505b505050602f60f81b815261177b61176a60018301866116ac565b64173539b7b760d91b815260050190565b95945050505050565b601f8211156104ba57805f5260205f20601f840160051c810160208510156117a95750805b601f840160051c820191505b81811015610900575f81556001016117b5565b81516001600160401b038111156117e1576117e1611218565b6117f5816117ef8454611641565b84611784565b6020601f821160018114611827575f83156118105750848201515b5f19600385901b1c1916600184901b178455610900565b5f84815260208120601f198516915b828110156118565787850151825560209485019460019092019101611836565b508482101561187357868401515f19600387901b60f8161c191681555b50505050600190811b01905550565b808201808211156102e957634e487b7160e01b5f52601160045260245ffd5b604081525f6118b36040830185611541565b828103602084015261177b8185611541565b6001600160a01b03868116825285166020820152604081018490526060810183905260a0608082018190525f906118fe908301846111c1565b979650505050505050565b5f60208284031215611919575f5ffd5b81516111ba8161118a565b6001600160a01b0386811682528516602082015260a0604082018190525f9061194f90830186611541565b82810360608401526119618186611541565b9050828103608084015261197581856111c1565b9897505050505050505056fea2646970667358221220069aab936d9cdfecc7d2054c77f4885e6f6e28869db36daccbcaa9c7fb44660564736f6c634300081c0033",
  "linkReferences": {},
  "deployedLinkReferences": {},
  "immutableReferences": {},
  "inputSourceName": "project/contracts/QuizPersonalityToken.sol",
  "buildInfoId": "solc-0_8_28-d8e81d4f9460fe9811a73ab64f872b15941af3d9"
}