{
  "_format": "hh3-artifact-1",
  "contractName": "QuizManager",
  "sourceName": "contracts/QuizManager.sol",
  "abi": [
    {
      "inputs": [
        {
          "internalType": "address",
          "name": "_quizPersonalityTokenContract",
          "type": "address"
        }
      ],
      "stateMutability": "nonpayable",
      "type": "constructor"
    },
    {
      "inputs": [
        {
          "internalType": "address",
          "name": "owner",
          "type": "address"
        }
      ],
      "name": "OwnableInvalidOwner",
      "type": "error"
    },
    {
      "inputs": [
        {
          "internalType": "address",
          "name": "account",
          "type": "address"
        }
      ],
      "name": "OwnableUnauthorizedAccount",
      "type": "error"
    },
    {
      "anonymous": false,
      "inputs": [
        {
          "indexed": true,
          "internalType": "address",
          "name": "previousOwner",
          "type": "address"
        },
        {
          "indexed": true,
          "internalType": "address",
          "name": "newOwner",
          "type": "address"
        }
      ],
      "name": "OwnershipTransferred",
      "type": "event"
    },
    {
      "anonymous": false,
      "inputs": [
        {
          "indexed": true,
          "internalType": "uint256",
          "name": "quizId",
          "type": "uint256"
        },
        {
          "indexed": true,
          "internalType": "address",
          "name": "by",
          "type": "address"
        }
      ],
      "name": "QuizActivated",
      "type": "event"
    },
    {
      "anonymous": false,
      "inputs": [
        {
          "indexed": true,
          "internalType": "uint256",
          "name": "quizId",
          "type": "uint256"
        },
        {
          "indexed": true,
          "internalType": "address",
          "name": "user",
          "type": "address"
        },
        {
          "indexed": false,
          "internalType": "string",
          "name": "personality",
          "type": "string"
        },
        {
          "indexed": false,
          "internalType": "uint256",
          "name": "tokenId",
          "type": "uint256"
        }
      ],
      "name": "QuizCompleted",
      "type": "event"
    },
    {
      "anonymous": false,
      "inputs": [
        {
          "indexed": true,
          "internalType": "uint256",
          "name": "quizId",
          "type": "uint256"
        },
        {
          "indexed": false,
          "internalType": "string",
          "name": "quizCid",
          "type": "string"
        },
        {
          "indexed": false,
          "internalType": "uint256",
          "name": "personalitiesCount",
          "type": "uint256"
        }
      ],
      "name": "QuizCreated",
      "type": "event"
    },
    {
      "anonymous": false,
      "inputs": [
        {
          "indexed": true,
          "internalType": "uint256",
          "name": "quizId",
          "type": "uint256"
        },
        {
          "indexed": true,
          "internalType": "address",
          "name": "by",
          "type": "address"
        }
      ],
      "name": "QuizDeactivated",
      "type": "event"
    },
    {
      "inputs": [
        {
          "internalType": "uint256",
          "name": "_quizId",
          "type": "uint256"
        }
      ],
      "name": "activateQuiz",
      "outputs": [],
      "stateMutability": "nonpayable",
      "type": "function"
    },
    {
      "inputs": [
        {
          "internalType": "uint256",
          "name": "_quizId",
          "type": "uint256"
        },
        {
          "internalType": "string",
          "name": "_quizPersonality",
          "type": "string"
        }
      ],
      "name": "completeQuiz",
      "outputs": [],
      "stateMutability": "nonpayable",
      "type": "function"
    },
    {
      "inputs": [
        {
          "internalType": "string",
          "name": "_quizCid",
          "type": "string"
        },
        {
          "internalType": "string[]",
          "name": "_personalities",
          "type": "string[]"
        }
      ],
      "name": "createQuiz",
      "outputs": [],
      "stateMutability": "nonpayable",
      "type": "function"
    },
    {
      "inputs": [
        {
          "internalType": "uint256",
          "name": "_quizId",
          "type": "uint256"
        }
      ],
      "name": "deactiveQuiz",
      "outputs": [],
      "stateMutability": "nonpayable",
      "type": "function"
    },
    {
      "inputs": [
        {
          "internalType": "uint256",
          "name": "_quizId",
          "type": "uint256"
        }
      ],
      "name": "getQuizInfo",
      "outputs": [
        {
          "internalType": "uint256",
          "name": "",
          "type": "uint256"
        },
        {
          "internalType": "string",
          "name": "",
          "type": "string"
        },
        {
          "internalType": "bool",
          "name": "",
          "type": "bool"
        }
      ],
      "stateMutability": "view",
      "type": "function"
    },
    {
      "inputs": [
        {
          "internalType": "address",
          "name": "",
          "type": "address"
        },
        {
          "internalType": "uint256",
          "name": "",
          "type": "uint256"
        }
      ],
      "name": "hasParticipated",
      "outputs": [
        {
          "internalType": "bool",
          "name": "",
          "type": "bool"
        }
      ],
      "stateMutability": "view",
      "type": "function"
    },
    {
      "inputs": [],
      "name": "owner",
      "outputs": [
        {
          "internalType": "address",
          "name": "",
          "type": "address"
        }
      ],
      "stateMutability": "view",
      "type": "function"
    },
    {
      "inputs": [],
      "name": "quizIdCounter",
      "outputs": [
        {
          "internalType": "uint256",
          "name": "",
          "type": "uint256"
        }
      ],
      "stateMutability": "view",
      "type": "function"
    },
    {
      "inputs": [],
      "name": "quizPersonalityTokenContract",
      "outputs": [
        {
          "internalType": "contract QuizPersonalityToken",
          "name": "",
          "type": "address"
        }
      ],
      "stateMutability": "view",
      "type": "function"
    },
    {
      "inputs": [],
      "name": "renounceOwnership",
      "outputs": [],
      "stateMutability": "nonpayable",
      "type": "function"
    },
    {
      "inputs": [
        {
          "internalType": "address",
          "name": "newOwner",
          "type": "address"
        }
      ],
      "name": "transferOwnership",
      "outputs": [],
      "stateMutability": "nonpayable",
      "type": "function"
    }
  ],
  "bytecode": "0x608060405234801561000f575f5ffd5b5060405161119438038061119483398101604081905261002e9161012b565b338061005457604051631e4fbdf760e01b81525f60048201526024015b60405180910390fd5b61005d816100dc565b506001600160a01b0381166100b45760405162461bcd60e51b815260206004820152601560248201527f696e76616c696420746f6b656e20616464726573730000000000000000000000604482015260640161004b565b600180546001600160a01b0319166001600160a01b0392909216919091178155600255610158565b5f80546001600160a01b038381166001600160a01b0319831681178455604051919092169283917f8be0079c531659141344cd1fd0a4f28419497f9722a3daafe3b4186f6b6457e09190a35050565b5f6020828403121561013b575f5ffd5b81516001600160a01b0381168114610151575f5ffd5b9392505050565b61102f806101655f395ff3fe608060405234801561000f575f5ffd5b50600436106100a6575f3560e01c806371d1c0201161006e57806371d1c0201461012f5780638da5cb5b14610151578063ae1ef41614610175578063b8f1545114610188578063f2fde38b1461019f578063f4afaff5146101b2575f5ffd5b80630e8f6091146100aa578063359211b4146100bf578063403861a1146101015780636f73a5a214610114578063715018a614610127575b5f5ffd5b6100bd6100b8366004610a9e565b6101c5565b005b6100ec6100cd366004610ad0565b600460209081525f928352604080842090915290825290205460ff1681565b60405190151581526020015b60405180910390f35b6100bd61010f366004610a9e565b6102a4565b6100bd610122366004610ba9565b610377565b6100bd61067d565b61014261013d366004610a9e565b610690565b6040516100f893929190610cd0565b5f546001600160a01b03165b6040516001600160a01b0390911681526020016100f8565b60015461015d906001600160a01b031681565b61019160025481565b6040519081526020016100f8565b6100bd6101ad366004610cfa565b610778565b6100bd6101c0366004610d1a565b6107b5565b6101cd610a23565b5f8181526003602052604081205490036102025760405162461bcd60e51b81526004016101f990610d5e565b60405180910390fd5b5f8181526003602052604090206002015460ff16151560011461025f5760405162461bcd60e51b81526020600482015260156024820152747175697a20616c726561647920696e61637469766560581b60448201526064016101f9565b5f81815260036020526040808220600201805460ff1916905551339183917f9b8cd45e929c382aee96bd657beefa3ed6232cb7b536f18e32d68091040d85d09190a350565b6102ac610a23565b5f8181526003602052604081205490036102d85760405162461bcd60e51b81526004016101f990610d5e565b5f8181526003602052604090206002015460ff161561032f5760405162461bcd60e51b81526020600482015260136024820152727175697a20616c72656164792061637469766560681b60448201526064016101f9565b5f81815260036020526040808220600201805460ff1916600117905551339183917fead92c0643eb7431d765175bf6d41471b56e5bae885753652c1dc21c60e377489190a350565b61037f610a23565b5f8251116103c15760405162461bcd60e51b815260206004820152600f60248201526e0cadae0e8f240e2ead2f440d0c2e6d608b1b60448201526064016101f9565b5f8151116104115760405162461bcd60e51b815260206004820152601960248201527f6e6f20706572736f6e616c69746965732070726f76696465640000000000000060448201526064016101f9565b5f5b8151811015610529575f82828151811061042f5761042f610d8c565b602002602001015151116104795760405162461bcd60e51b8152602060048201526011602482015270656d70747920706572736f6e616c69747960781b60448201526064016101f9565b5f610485826001610db4565b90505b8251811015610520578281815181106104a3576104a3610d8c565b6020026020010151805190602001208383815181106104c4576104c4610d8c565b602002602001015180519060200120036105185760405162461bcd60e51b81526020600482015260156024820152746475706c696361746520706572736f6e616c69747960581b60448201526064016101f9565b600101610488565b50600101610413565b50600280545f818152600360205260409020908155908101805460ff19169055600181016105578482610e51565b505f5b82518110156105c65781545f908290610575906103e8610f0c565b61057f9190610db4565b9050808360030185848151811061059857610598610d8c565b60200260200101516040516105ad9190610f23565b908152604051908190036020019020555060010161055a565b506001805460405163024e14c760e31b81526001600160a01b0390911691631270a638916105f991850190600401610f39565b5f604051808303815f87803b158015610610575f5ffd5b505af1158015610622573d5f5f3e3d5ffd5b505060028054925090505f61063683610fc0565b9091555050805482516040517f4fa53befad9cb42bae61de12bde559d3e6b7eec35be7c02061f1ee54c1f51beb9161067091879190610fd8565b60405180910390a2505050565b610685610a23565b61068e5f610a4f565b565b5f81815260036020526040812054606090829081036106c15760405162461bcd60e51b81526004016101f990610d5e565b5f84815260036020526040902080546002820154600183018054909160ff169082906106ec90610dcd565b80601f016020809104026020016040519081016040528092919081815260200182805461071890610dcd565b80156107635780601f1061073a57610100808354040283529160200191610763565b820191905f5260205f20905b81548152906001019060200180831161074657829003601f168201915b50505050509150935093509350509193909250565b610780610a23565b6001600160a01b0381166107a957604051631e4fbdf760e01b81525f60048201526024016101f9565b6107b281610a4f565b50565b5f8281526003602052604081205490036107e15760405162461bcd60e51b81526004016101f990610d5e565b5f8281526003602052604090206002015460ff1615156001146108465760405162461bcd60e51b815260206004820152601860248201527f7175697a206973206e6f206c6f6e67657220616374697665000000000000000060448201526064016101f9565b60035f8381526020019081526020015f20600301816040516108689190610f23565b9081526020016040518091039020545f036108c55760405162461bcd60e51b815260206004820152601860248201527f696e76616c696420706572736f6e616c6974792074797065000000000000000060448201526064016101f9565b335f90815260046020908152604080832085845290915290205460ff16156109265760405162461bcd60e51b8152602060048201526014602482015273185b1c9958591e481c185c9d1a58da5c185d195960621b60448201526064016101f9565b5f8281526003602081905260408083209051910190610946908490610f23565b90815260408051918290036020908101832054335f81815260048085528582208a835290945293909320805460ff19166001908117909155546340c10f1960e01b855291840192909252602483018290529092506001600160a01b0316906340c10f19906044015f604051808303815f87803b1580156109c4575f5ffd5b505af11580156109d6573d5f5f3e3d5ffd5b50505050336001600160a01b0316837fd93b85ecf71b7c44554efe1f630b296c58767b000ac23bf06723d8ed312961ee8484604051610a16929190610fd8565b60405180910390a3505050565b5f546001600160a01b0316331461068e5760405163118cdaa760e01b81523360048201526024016101f9565b5f80546001600160a01b038381166001600160a01b0319831681178455604051919092169283917f8be0079c531659141344cd1fd0a4f28419497f9722a3daafe3b4186f6b6457e09190a35050565b5f60208284031215610aae575f5ffd5b5035919050565b80356001600160a01b0381168114610acb575f5ffd5b919050565b5f5f60408385031215610ae1575f5ffd5b610aea83610ab5565b946020939093013593505050565b634e487b7160e01b5f52604160045260245ffd5b604051601f8201601f1916810167ffffffffffffffff81118282101715610b3557610b35610af8565b604052919050565b5f82601f830112610b4c575f5ffd5b813567ffffffffffffffff811115610b6657610b66610af8565b610b79601f8201601f1916602001610b0c565b818152846020838601011115610b8d575f5ffd5b816020850160208301375f918101602001919091529392505050565b5f5f60408385031215610bba575f5ffd5b823567ffffffffffffffff811115610bd0575f5ffd5b610bdc85828601610b3d565b925050602083013567ffffffffffffffff811115610bf8575f5ffd5b8301601f81018513610c08575f5ffd5b803567ffffffffffffffff811115610c2257610c22610af8565b8060051b610c3260208201610b0c565b91825260208184018101929081019088841115610c4d575f5ffd5b6020850192505b83831015610c9357823567ffffffffffffffff811115610c72575f5ffd5b610c818a602083890101610b3d565b83525060209283019290910190610c54565b80955050505050509250929050565b5f81518084528060208401602086015e5f602082860101526020601f19601f83011685010191505092915050565b838152606060208201525f610ce86060830185610ca2565b90508215156040830152949350505050565b5f60208284031215610d0a575f5ffd5b610d1382610ab5565b9392505050565b5f5f60408385031215610d2b575f5ffd5b82359150602083013567ffffffffffffffff811115610d48575f5ffd5b610d5485828601610b3d565b9150509250929050565b6020808252601490820152737175697a20646f6573206e6f742065786973747360601b604082015260600190565b634e487b7160e01b5f52603260045260245ffd5b634e487b7160e01b5f52601160045260245ffd5b80820180821115610dc757610dc7610da0565b92915050565b600181811c90821680610de157607f821691505b602082108103610dff57634e487b7160e01b5f52602260045260245ffd5b50919050565b601f821115610e4c57805f5260205f20601f840160051c81016020851015610e2a5750805b601f840160051c820191505b81811015610e49575f8155600101610e36565b50505b505050565b815167ffffffffffffffff811115610e6b57610e6b610af8565b610e7f81610e798454610dcd565b84610e05565b6020601f821160018114610eb1575f8315610e9a5750848201515b5f19600385901b1c1916600184901b178455610e49565b5f84815260208120601f198516915b82811015610ee05787850151825560209485019460019092019101610ec0565b5084821015610efd57868401515f19600387901b60f8161c191681555b50505050600190811b01905550565b8082028115828204841417610dc757610dc7610da0565b5f82518060208501845e5f920191825250919050565b602081525f5f8354610f4a81610dcd565b806020860152600182165f8114610f685760018114610f8457610fb5565b60ff1983166040870152604082151560051b8701019350610fb5565b865f5260205f205f5b83811015610fac57815488820160400152600190910190602001610f8d565b87016040019450505b509195945050505050565b5f60018201610fd157610fd1610da0565b5060010190565b604081525f610fea6040830185610ca2565b9050826020830152939250505056fea26469706673582212204424f0680994f060f1e389ecf9a43a41ef696ede6f1d6e84aa6af088b02aa5e964736f6c634300081c0033",
  "linkReferences": {},
  "deployedLinkReferences": {},
  "immutableReferences": {},
  "inputSourceName": "project/contracts/QuizManager.sol",
  "buildInfoId": "solc-0_8_28-aad0084571ebb23ed8e1ddac0e5ac581ef45ab79"
}