{
  "_format": "hh3-artifact-1",
  "contractName": "PersonalityToken",
  "sourceName": "contracts/PersonalityToken.sol",
  "abi": [
    {
      "inputs": [
        {
          "internalType": "string",
          "name": "_uri",
          "type": "string"
        }
      ],
      "stateMutability": "nonpayable",
      "type": "constructor"
    },
    {
      "inputs": [],
      "name": "AccessControlBadConfirmation",
      "type": "error"
    },
    {
      "inputs": [
        {
          "internalType": "address",
          "name": "account",
          "type": "address"
        },
        {
          "internalType": "bytes32",
          "name": "neededRole",
          "type": "bytes32"
        }
      ],
      "name": "AccessControlUnauthorizedAccount",
      "type": "error"
    },
    {
      "inputs": [
        {
          "internalType": "address",
          "name": "sender",
          "type": "address"
        },
        {
          "internalType": "uint256",
          "name": "balance",
          "type": "uint256"
        },
        {
          "internalType": "uint256",
          "name": "needed",
          "type": "uint256"
        },
        {
          "internalType": "uint256",
          "name": "tokenId",
          "type": "uint256"
        }
      ],
      "name": "ERC1155InsufficientBalance",
      "type": "error"
    },
    {
      "inputs": [
        {
          "internalType": "address",
          "name": "approver",
          "type": "address"
        }
      ],
      "name": "ERC1155InvalidApprover",
      "type": "error"
    },
    {
      "inputs": [
        {
          "internalType": "uint256",
          "name": "idsLength",
          "type": "uint256"
        },
        {
          "internalType": "uint256",
          "name": "valuesLength",
          "type": "uint256"
        }
      ],
      "name": "ERC1155InvalidArrayLength",
      "type": "error"
    },
    {
      "inputs": [
        {
          "internalType": "address",
          "name": "operator",
          "type": "address"
        }
      ],
      "name": "ERC1155InvalidOperator",
      "type": "error"
    },
    {
      "inputs": [
        {
          "internalType": "address",
          "name": "receiver",
          "type": "address"
        }
      ],
      "name": "ERC1155InvalidReceiver",
      "type": "error"
    },
    {
      "inputs": [
        {
          "internalType": "address",
          "name": "sender",
          "type": "address"
        }
      ],
      "name": "ERC1155InvalidSender",
      "type": "error"
    },
    {
      "inputs": [
        {
          "internalType": "address",
          "name": "operator",
          "type": "address"
        },
        {
          "internalType": "address",
          "name": "owner",
          "type": "address"
        }
      ],
      "name": "ERC1155MissingApprovalForAll",
      "type": "error"
    },
    {
      "anonymous": false,
      "inputs": [
        {
          "indexed": true,
          "internalType": "address",
          "name": "account",
          "type": "address"
        },
        {
          "indexed": true,
          "internalType": "address",
          "name": "operator",
          "type": "address"
        },
        {
          "indexed": false,
          "internalType": "bool",
          "name": "approved",
          "type": "bool"
        }
      ],
      "name": "ApprovalForAll",
      "type": "event"
    },
    {
      "anonymous": false,
      "inputs": [
        {
          "indexed": true,
          "internalType": "bytes32",
          "name": "role",
          "type": "bytes32"
        },
        {
          "indexed": true,
          "internalType": "bytes32",
          "name": "previousAdminRole",
          "type": "bytes32"
        },
        {
          "indexed": true,
          "internalType": "bytes32",
          "name": "newAdminRole",
          "type": "bytes32"
        }
      ],
      "name": "RoleAdminChanged",
      "type": "event"
    },
    {
      "anonymous": false,
      "inputs": [
        {
          "indexed": true,
          "internalType": "bytes32",
          "name": "role",
          "type": "bytes32"
        },
        {
          "indexed": true,
          "internalType": "address",
          "name": "account",
          "type": "address"
        },
        {
          "indexed": true,
          "internalType": "address",
          "name": "sender",
          "type": "address"
        }
      ],
      "name": "RoleGranted",
      "type": "event"
    },
    {
      "anonymous": false,
      "inputs": [
        {
          "indexed": true,
          "internalType": "bytes32",
          "name": "role",
          "type": "bytes32"
        },
        {
          "indexed": true,
          "internalType": "address",
          "name": "account",
          "type": "address"
        },
        {
          "indexed": true,
          "internalType": "address",
          "name": "sender",
          "type": "address"
        }
      ],
      "name": "RoleRevoked",
      "type": "event"
    },
    {
      "anonymous": false,
      "inputs": [
        {
          "indexed": true,
          "internalType": "address",
          "name": "user",
          "type": "address"
        },
        {
          "indexed": false,
          "internalType": "uint256",
          "name": "tokenId",
          "type": "uint256"
        },
        {
          "indexed": false,
          "internalType": "uint256",
          "name": "quizId",
          "type": "uint256"
        }
      ],
      "name": "TokenMinted",
      "type": "event"
    },
    {
      "anonymous": false,
      "inputs": [
        {
          "indexed": true,
          "internalType": "address",
          "name": "operator",
          "type": "address"
        },
        {
          "indexed": true,
          "internalType": "address",
          "name": "from",
          "type": "address"
        },
        {
          "indexed": true,
          "internalType": "address",
          "name": "to",
          "type": "address"
        },
        {
          "indexed": false,
          "internalType": "uint256[]",
          "name": "ids",
          "type": "uint256[]"
        },
        {
          "indexed": false,
          "internalType": "uint256[]",
          "name": "values",
          "type": "uint256[]"
        }
      ],
      "name": "TransferBatch",
      "type": "event"
    },
    {
      "anonymous": false,
      "inputs": [
        {
          "indexed": true,
          "internalType": "address",
          "name": "operator",
          "type": "address"
        },
        {
          "indexed": true,
          "internalType": "address",
          "name": "from",
          "type": "address"
        },
        {
          "indexed": true,
          "internalType": "address",
          "name": "to",
          "type": "address"
        },
        {
          "indexed": false,
          "internalType": "uint256",
          "name": "id",
          "type": "uint256"
        },
        {
          "indexed": false,
          "internalType": "uint256",
          "name": "value",
          "type": "uint256"
        }
      ],
      "name": "TransferSingle",
      "type": "event"
    },
    {
      "anonymous": false,
      "inputs": [
        {
          "indexed": false,
          "internalType": "string",
          "name": "value",
          "type": "string"
        },
        {
          "indexed": true,
          "internalType": "uint256",
          "name": "id",
          "type": "uint256"
        }
      ],
      "name": "URI",
      "type": "event"
    },
    {
      "inputs": [],
      "name": "DEFAULT_ADMIN_ROLE",
      "outputs": [
        {
          "internalType": "bytes32",
          "name": "",
          "type": "bytes32"
        }
      ],
      "stateMutability": "view",
      "type": "function"
    },
    {
      "inputs": [],
      "name": "MINTER_ROLE",
      "outputs": [
        {
          "internalType": "bytes32",
          "name": "",
          "type": "bytes32"
        }
      ],
      "stateMutability": "view",
      "type": "function"
    },
    {
      "inputs": [
        {
          "internalType": "address",
          "name": "account",
          "type": "address"
        },
        {
          "internalType": "uint256",
          "name": "id",
          "type": "uint256"
        }
      ],
      "name": "balanceOf",
      "outputs": [
        {
          "internalType": "uint256",
          "name": "",
          "type": "uint256"
        }
      ],
      "stateMutability": "view",
      "type": "function"
    },
    {
      "inputs": [
        {
          "internalType": "address[]",
          "name": "accounts",
          "type": "address[]"
        },
        {
          "internalType": "uint256[]",
          "name": "ids",
          "type": "uint256[]"
        }
      ],
      "name": "balanceOfBatch",
      "outputs": [
        {
          "internalType": "uint256[]",
          "name": "",
          "type": "uint256[]"
        }
      ],
      "stateMutability": "view",
      "type": "function"
    },
    {
      "inputs": [],
      "name": "contractURI",
      "outputs": [
        {
          "internalType": "string",
          "name": "",
          "type": "string"
        }
      ],
      "stateMutability": "view",
      "type": "function"
    },
    {
      "inputs": [
        {
          "internalType": "bytes32",
          "name": "role",
          "type": "bytes32"
        }
      ],
      "name": "getRoleAdmin",
      "outputs": [
        {
          "internalType": "bytes32",
          "name": "",
          "type": "bytes32"
        }
      ],
      "stateMutability": "view",
      "type": "function"
    },
    {
      "inputs": [
        {
          "internalType": "bytes32",
          "name": "role",
          "type": "bytes32"
        },
        {
          "internalType": "address",
          "name": "account",
          "type": "address"
        }
      ],
      "name": "grantRole",
      "outputs": [],
      "stateMutability": "nonpayable",
      "type": "function"
    },
    {
      "inputs": [
        {
          "internalType": "bytes32",
          "name": "role",
          "type": "bytes32"
        },
        {
          "internalType": "address",
          "name": "account",
          "type": "address"
        }
      ],
      "name": "hasRole",
      "outputs": [
        {
          "internalType": "bool",
          "name": "",
          "type": "bool"
        }
      ],
      "stateMutability": "view",
      "type": "function"
    },
    {
      "inputs": [
        {
          "internalType": "address",
          "name": "account",
          "type": "address"
        },
        {
          "internalType": "address",
          "name": "operator",
          "type": "address"
        }
      ],
      "name": "isApprovedForAll",
      "outputs": [
        {
          "internalType": "bool",
          "name": "",
          "type": "bool"
        }
      ],
      "stateMutability": "view",
      "type": "function"
    },
    {
      "inputs": [
        {
          "internalType": "address",
          "name": "to",
          "type": "address"
        },
        {
          "internalType": "uint256",
          "name": "tokenId",
          "type": "uint256"
        },
        {
          "internalType": "uint256",
          "name": "quizId",
          "type": "uint256"
        }
      ],
      "name": "mint",
      "outputs": [],
      "stateMutability": "nonpayable",
      "type": "function"
    },
    {
      "inputs": [
        {
          "internalType": "string",
          "name": "newuri",
          "type": "string"
        }
      ],
      "name": "pushHash",
      "outputs": [],
      "stateMutability": "nonpayable",
      "type": "function"
    },
    {
      "inputs": [
        {
          "internalType": "bytes32",
          "name": "role",
          "type": "bytes32"
        },
        {
          "internalType": "address",
          "name": "callerConfirmation",
          "type": "address"
        }
      ],
      "name": "renounceRole",
      "outputs": [],
      "stateMutability": "nonpayable",
      "type": "function"
    },
    {
      "inputs": [
        {
          "internalType": "bytes32",
          "name": "role",
          "type": "bytes32"
        },
        {
          "internalType": "address",
          "name": "account",
          "type": "address"
        }
      ],
      "name": "revokeRole",
      "outputs": [],
      "stateMutability": "nonpayable",
      "type": "function"
    },
    {
      "inputs": [
        {
          "internalType": "address",
          "name": "from",
          "type": "address"
        },
        {
          "internalType": "address",
          "name": "to",
          "type": "address"
        },
        {
          "internalType": "uint256[]",
          "name": "ids",
          "type": "uint256[]"
        },
        {
          "internalType": "uint256[]",
          "name": "values",
          "type": "uint256[]"
        },
        {
          "internalType": "bytes",
          "name": "data",
          "type": "bytes"
        }
      ],
      "name": "safeBatchTransferFrom",
      "outputs": [],
      "stateMutability": "nonpayable",
      "type": "function"
    },
    {
      "inputs": [
        {
          "internalType": "address",
          "name": "from",
          "type": "address"
        },
        {
          "internalType": "address",
          "name": "to",
          "type": "address"
        },
        {
          "internalType": "uint256",
          "name": "id",
          "type": "uint256"
        },
        {
          "internalType": "uint256",
          "name": "value",
          "type": "uint256"
        },
        {
          "internalType": "bytes",
          "name": "data",
          "type": "bytes"
        }
      ],
      "name": "safeTransferFrom",
      "outputs": [],
      "stateMutability": "nonpayable",
      "type": "function"
    },
    {
      "inputs": [
        {
          "internalType": "address",
          "name": "operator",
          "type": "address"
        },
        {
          "internalType": "bool",
          "name": "approved",
          "type": "bool"
        }
      ],
      "name": "setApprovalForAll",
      "outputs": [],
      "stateMutability": "nonpayable",
      "type": "function"
    },
    {
      "inputs": [
        {
          "internalType": "string",
          "name": "newuri",
          "type": "string"
        }
      ],
      "name": "setURI",
      "outputs": [],
      "stateMutability": "nonpayable",
      "type": "function"
    },
    {
      "inputs": [
        {
          "internalType": "bytes4",
          "name": "interfaceId",
          "type": "bytes4"
        }
      ],
      "name": "supportsInterface",
      "outputs": [
        {
          "internalType": "bool",
          "name": "",
          "type": "bool"
        }
      ],
      "stateMutability": "view",
      "type": "function"
    },
    {
      "inputs": [
        {
          "internalType": "uint256",
          "name": "tokenId",
          "type": "uint256"
        }
      ],
      "name": "uri",
      "outputs": [
        {
          "internalType": "string",
          "name": "",
          "type": "string"
        }
      ],
      "stateMutability": "view",
      "type": "function"
    }
  ],
  "bytecode": "0x608060405234801561000f575f5ffd5b506040516135e03803806135e08339818101604052810190610031919061034e565b806100418161008d60201b60201c565b506100545f5f1b336100a060201b60201c565b50600481908060018154018082558091505060019003905f5260205f20015f90919091909150908161008691906105a5565b5050610674565b806002908161009c91906105a5565b5050565b5f6100b1838361019660201b60201c565b61018c57600160035f8581526020019081526020015f205f015f8473ffffffffffffffffffffffffffffffffffffffff1673ffffffffffffffffffffffffffffffffffffffff1681526020019081526020015f205f6101000a81548160ff0219169083151502179055506101296101fa60201b60201c565b73ffffffffffffffffffffffffffffffffffffffff168273ffffffffffffffffffffffffffffffffffffffff16847f2f8788117e7eff1d82e926ec794901d17c78024a50270940304540a733656f0d60405160405180910390a460019050610190565b5f90505b92915050565b5f60035f8481526020019081526020015f205f015f8373ffffffffffffffffffffffffffffffffffffffff1673ffffffffffffffffffffffffffffffffffffffff1681526020019081526020015f205f9054906101000a900460ff16905092915050565b5f33905090565b5f604051905090565b5f5ffd5b5f5ffd5b5f5ffd5b5f5ffd5b5f601f19601f8301169050919050565b7f4e487b71000000000000000000000000000000000000000000000000000000005f52604160045260245ffd5b6102608261021a565b810181811067ffffffffffffffff8211171561027f5761027e61022a565b5b80604052505050565b5f610291610201565b905061029d8282610257565b919050565b5f67ffffffffffffffff8211156102bc576102bb61022a565b5b6102c58261021a565b9050602081019050919050565b8281835e5f83830152505050565b5f6102f26102ed846102a2565b610288565b90508281526020810184848401111561030e5761030d610216565b5b6103198482856102d2565b509392505050565b5f82601f83011261033557610334610212565b5b81516103458482602086016102e0565b91505092915050565b5f602082840312156103635761036261020a565b5b5f82015167ffffffffffffffff8111156103805761037f61020e565b5b61038c84828501610321565b91505092915050565b5f81519050919050565b7f4e487b71000000000000000000000000000000000000000000000000000000005f52602260045260245ffd5b5f60028204905060018216806103e357607f821691505b6020821081036103f6576103f561039f565b5b50919050565b5f819050815f5260205f209050919050565b5f6020601f8301049050919050565b5f82821b905092915050565b5f600883026104587fffffffffffffffffffffffffffffffffffffffffffffffffffffffffffffffff8261041d565b610462868361041d565b95508019841693508086168417925050509392505050565b5f819050919050565b5f819050919050565b5f6104a66104a161049c8461047a565b610483565b61047a565b9050919050565b5f819050919050565b6104bf8361048c565b6104d36104cb826104ad565b848454610429565b825550505050565b5f5f905090565b6104ea6104db565b6104f58184846104b6565b505050565b5b818110156105185761050d5f826104e2565b6001810190506104fb565b5050565b601f82111561055d5761052e816103fc565b6105378461040e565b81016020851015610546578190505b61055a6105528561040e565b8301826104fa565b50505b505050565b5f82821c905092915050565b5f61057d5f1984600802610562565b1980831691505092915050565b5f610595838361056e565b9150826002028217905092915050565b6105ae82610395565b67ffffffffffffffff8111156105c7576105c661022a565b5b6105d182546103cc565b6105dc82828561051c565b5f60209050601f83116001811461060d575f84156105fb578287015190505b610605858261058a565b86555061066c565b601f19841661061b866103fc565b5f5b828110156106425784890151825560018201915060208501945060208101905061061d565b8683101561065f578489015161065b601f89168261056e565b8355505b6001600288020188555050505b505050505050565b612f5f806106815f395ff3fe608060405234801561000f575f5ffd5b506004361061011e575f3560e01c80634e1273f4116100ab578063d547741f1161006f578063d547741f14610326578063e8a3d48514610342578063e985e9c514610360578063f242432a14610390578063ff6f9496146103ac5761011e565b80634e1273f41461026e57806391d148541461029e578063a217fddf146102ce578063a22cb465146102ec578063d5391393146103085761011e565b8063156e29f6116100f2578063156e29f6146101ce578063248a9ca3146101ea5780632eb2c2d61461021a5780632f2ff15d1461023657806336568abe146102525761011e565b8062fdd58e1461012257806301ffc9a71461015257806302fe5305146101825780630e89341c1461019e575b5f5ffd5b61013c60048036038101906101379190611cfa565b6103c8565b6040516101499190611d47565b60405180910390f35b61016c60048036038101906101679190611db5565b61041d565b6040516101799190611dfa565b60405180910390f35b61019c60048036038101906101979190611f4f565b61042e565b005b6101b860048036038101906101b39190611f96565b610457565b6040516101c59190612021565b60405180910390f35b6101e860048036038101906101e39190612041565b6104b7565b005b61020460048036038101906101ff91906120c4565b610552565b60405161021191906120fe565b60405180910390f35b610234600480360381019061022f9190612279565b61056f565b005b610250600480360381019061024b9190612344565b610616565b005b61026c60048036038101906102679190612344565b610638565b005b61028860048036038101906102839190612442565b6106b3565b604051610295919061256f565b60405180910390f35b6102b860048036038101906102b39190612344565b6107bd565b6040516102c59190611dfa565b60405180910390f35b6102d6610821565b6040516102e391906120fe565b60405180910390f35b610306600480360381019061030191906125b9565b610827565b005b61031061083d565b60405161031d91906120fe565b60405180910390f35b610340600480360381019061033b9190612344565b610861565b005b61034a610883565b6040516103579190612021565b60405180910390f35b61037a600480360381019061037591906125f7565b6108ab565b6040516103879190611dfa565b60405180910390f35b6103aa60048036038101906103a59190612635565b610939565b005b6103c660048036038101906103c19190611f4f565b6109e0565b005b5f5f5f8381526020019081526020015f205f8473ffffffffffffffffffffffffffffffffffffffff1673ffffffffffffffffffffffffffffffffffffffff1681526020019081526020015f2054905092915050565b5f61042782610a40565b9050919050565b5f5f1b61043a81610ab9565b61044382610acd565b816005908161045291906128c5565b505050565b60605f6103e88361046891906129ee565b90506004818154811061047e5761047d612a1e565b5b905f5260205f200161048f84610ae0565b6040516020016104a0929190612be3565b604051602081830303815290604052915050919050565b7f9f2df0fed2c77648de5860a4cc508cd0818c85b8b8a1ab4ceeef8d981c8956a66104e181610ab9565b6104fc8484600160405180602001604052805f815250610baa565b8373ffffffffffffffffffffffffffffffffffffffff167f96234cb3d6c373a1aaa06497a540bc166d4b0359243a088eaf95e21d7253d0be8484604051610544929190612c27565b60405180910390a250505050565b5f60035f8381526020019081526020015f20600101549050919050565b5f610578610c3f565b90508073ffffffffffffffffffffffffffffffffffffffff168673ffffffffffffffffffffffffffffffffffffffff16141580156105bd57506105bb86826108ab565b155b156106015780866040517fe237d9220000000000000000000000000000000000000000000000000000000081526004016105f8929190612c5d565b60405180910390fd5b61060e8686868686610c46565b505050505050565b61061f82610552565b61062881610ab9565b6106328383610d3a565b50505050565b610640610c3f565b73ffffffffffffffffffffffffffffffffffffffff168173ffffffffffffffffffffffffffffffffffffffff16146106a4576040517f6697b23200000000000000000000000000000000000000000000000000000000815260040160405180910390fd5b6106ae8282610e24565b505050565b606081518351146106ff57815183516040517f5b0599910000000000000000000000000000000000000000000000000000000081526004016106f6929190612c27565b60405180910390fd5b5f835167ffffffffffffffff81111561071b5761071a611e2b565b5b6040519080825280602002602001820160405280156107495781602001602082028036833780820191505090505b5090505f5f90505b84518110156107b2576107886107708287610f0e90919063ffffffff16565b6107838387610f2190919063ffffffff16565b6103c8565b82828151811061079b5761079a612a1e565b5b602002602001018181525050806001019050610751565b508091505092915050565b5f60035f8481526020019081526020015f205f015f8373ffffffffffffffffffffffffffffffffffffffff1673ffffffffffffffffffffffffffffffffffffffff1681526020019081526020015f205f9054906101000a900460ff16905092915050565b5f5f1b81565b610839610832610c3f565b8383610f34565b5050565b7f9f2df0fed2c77648de5860a4cc508cd0818c85b8b8a1ab4ceeef8d981c8956a681565b61086a82610552565b61087381610ab9565b61087d8383610e24565b50505050565b606060056040516020016108979190612cce565b604051602081830303815290604052905090565b5f60015f8473ffffffffffffffffffffffffffffffffffffffff1673ffffffffffffffffffffffffffffffffffffffff1681526020019081526020015f205f8373ffffffffffffffffffffffffffffffffffffffff1673ffffffffffffffffffffffffffffffffffffffff1681526020019081526020015f205f9054906101000a900460ff16905092915050565b5f610942610c3f565b90508073ffffffffffffffffffffffffffffffffffffffff168673ffffffffffffffffffffffffffffffffffffffff1614158015610987575061098586826108ab565b155b156109cb5780866040517fe237d9220000000000000000000000000000000000000000000000000000000081526004016109c2929190612c5d565b60405180910390fd5b6109d8868686868661109d565b505050505050565b7f9f2df0fed2c77648de5860a4cc508cd0818c85b8b8a1ab4ceeef8d981c8956a6610a0a81610ab9565b600482908060018154018082558091505060019003905f5260205f20015f909190919091509081610a3b91906128c5565b505050565b5f7f7965db0b000000000000000000000000000000000000000000000000000000007bffffffffffffffffffffffffffffffffffffffffffffffffffffffff1916827bffffffffffffffffffffffffffffffffffffffffffffffffffffffff19161480610ab25750610ab1826111a3565b5b9050919050565b610aca81610ac5610c3f565b611284565b50565b8060029081610adc91906128c5565b5050565b60605f6001610aee846112d5565b0190505f8167ffffffffffffffff811115610b0c57610b0b611e2b565b5b6040519080825280601f01601f191660200182016040528015610b3e5781602001600182028036833780820191505090505b5090505f82602083010190505b600115610b9f578080600190039150507f3031323334353637383961626364656600000000000000000000000000000000600a86061a8153600a8581610b9457610b93612994565b5b0494505f8503610b4b575b819350505050919050565b5f73ffffffffffffffffffffffffffffffffffffffff168473ffffffffffffffffffffffffffffffffffffffff1603610c1a575f6040517f57f447ce000000000000000000000000000000000000000000000000000000008152600401610c119190612cef565b60405180910390fd5b5f5f610c268585611426565b91509150610c375f87848487611456565b505050505050565b5f33905090565b5f73ffffffffffffffffffffffffffffffffffffffff168473ffffffffffffffffffffffffffffffffffffffff1603610cb6575f6040517f57f447ce000000000000000000000000000000000000000000000000000000008152600401610cad9190612cef565b60405180910390fd5b5f73ffffffffffffffffffffffffffffffffffffffff168573ffffffffffffffffffffffffffffffffffffffff1603610d26575f6040517f01a83514000000000000000000000000000000000000000000000000000000008152600401610d1d9190612cef565b60405180910390fd5b610d338585858585611456565b5050505050565b5f610d4583836107bd565b610e1a57600160035f8581526020019081526020015f205f015f8473ffffffffffffffffffffffffffffffffffffffff1673ffffffffffffffffffffffffffffffffffffffff1681526020019081526020015f205f6101000a81548160ff021916908315150217905550610db7610c3f565b73ffffffffffffffffffffffffffffffffffffffff168273ffffffffffffffffffffffffffffffffffffffff16847f2f8788117e7eff1d82e926ec794901d17c78024a50270940304540a733656f0d60405160405180910390a460019050610e1e565b5f90505b92915050565b5f610e2f83836107bd565b15610f04575f60035f8581526020019081526020015f205f015f8473ffffffffffffffffffffffffffffffffffffffff1673ffffffffffffffffffffffffffffffffffffffff1681526020019081526020015f205f6101000a81548160ff021916908315150217905550610ea1610c3f565b73ffffffffffffffffffffffffffffffffffffffff168273ffffffffffffffffffffffffffffffffffffffff16847ff6391f5c32d9c69d2a47ea670b442974b53935d1edc7fd64eb21e047a839171b60405160405180910390a460019050610f08565b5f90505b92915050565b5f60208202602084010151905092915050565b5f60208202602084010151905092915050565b5f73ffffffffffffffffffffffffffffffffffffffff168273ffffffffffffffffffffffffffffffffffffffff1603610fa4575f6040517fced3e100000000000000000000000000000000000000000000000000000000008152600401610f9b9190612cef565b60405180910390fd5b8060015f8573ffffffffffffffffffffffffffffffffffffffff1673ffffffffffffffffffffffffffffffffffffffff1681526020019081526020015f205f8473ffffffffffffffffffffffffffffffffffffffff1673ffffffffffffffffffffffffffffffffffffffff1681526020019081526020015f205f6101000a81548160ff0219169083151502179055508173ffffffffffffffffffffffffffffffffffffffff168373ffffffffffffffffffffffffffffffffffffffff167f17307eab39ab6107e8899845ad3d59bd9653f200f220920489ca2b5937696c31836040516110909190611dfa565b60405180910390a3505050565b5f73ffffffffffffffffffffffffffffffffffffffff168473ffffffffffffffffffffffffffffffffffffffff160361110d575f6040517f57f447ce0000000000000000000000000000000000000000000000000000000081526004016111049190612cef565b60405180910390fd5b5f73ffffffffffffffffffffffffffffffffffffffff168573ffffffffffffffffffffffffffffffffffffffff160361117d575f6040517f01a835140000000000000000000000000000000000000000000000000000000081526004016111749190612cef565b60405180910390fd5b5f5f6111898585611426565b9150915061119a8787848487611456565b50505050505050565b5f7fd9b67a26000000000000000000000000000000000000000000000000000000007bffffffffffffffffffffffffffffffffffffffffffffffffffffffff1916827bffffffffffffffffffffffffffffffffffffffffffffffffffffffff1916148061126d57507f0e89341c000000000000000000000000000000000000000000000000000000007bffffffffffffffffffffffffffffffffffffffffffffffffffffffff1916827bffffffffffffffffffffffffffffffffffffffffffffffffffffffff1916145b8061127d575061127c82611502565b5b9050919050565b61128e82826107bd565b6112d15780826040517fe2517d3f0000000000000000000000000000000000000000000000000000000081526004016112c8929190612d08565b60405180910390fd5b5050565b5f5f5f90507a184f03e93ff9f4daa797ed6e38ed64bf6a1f0100000000000000008310611331577a184f03e93ff9f4daa797ed6e38ed64bf6a1f010000000000000000838161132757611326612994565b5b0492506040810190505b6d04ee2d6d415b85acef8100000000831061136e576d04ee2d6d415b85acef8100000000838161136457611363612994565b5b0492506020810190505b662386f26fc10000831061139d57662386f26fc10000838161139357611392612994565b5b0492506010810190505b6305f5e10083106113c6576305f5e10083816113bc576113bb612994565b5b0492506008810190505b61271083106113eb5761271083816113e1576113e0612994565b5b0492506004810190505b6064831061140e576064838161140457611403612994565b5b0492506002810190505b600a831061141d576001810190505b80915050919050565b60608060405191506001825283602083015260408201905060018152826020820152604081016040529250929050565b6114628585858561156b565b5f73ffffffffffffffffffffffffffffffffffffffff168473ffffffffffffffffffffffffffffffffffffffff16146114fb575f61149e610c3f565b905060018451036114ea575f6114bd5f86610f2190919063ffffffff16565b90505f6114d35f86610f2190919063ffffffff16565b90506114e38389898585896118fe565b50506114f9565b6114f8818787878787611aad565b5b505b5050505050565b5f7f01ffc9a7000000000000000000000000000000000000000000000000000000007bffffffffffffffffffffffffffffffffffffffffffffffffffffffff1916827bffffffffffffffffffffffffffffffffffffffffffffffffffffffff1916149050919050565b80518251146115b557815181516040517f5b0599910000000000000000000000000000000000000000000000000000000081526004016115ac929190612c27565b60405180910390fd5b5f6115be610c3f565b90505f5f90505b83518110156117bd575f6115e28286610f2190919063ffffffff16565b90505f6115f88386610f2190919063ffffffff16565b90505f73ffffffffffffffffffffffffffffffffffffffff168873ffffffffffffffffffffffffffffffffffffffff161461171b575f5f5f8481526020019081526020015f205f8a73ffffffffffffffffffffffffffffffffffffffff1673ffffffffffffffffffffffffffffffffffffffff1681526020019081526020015f20549050818110156116c757888183856040517f03dee4c50000000000000000000000000000000000000000000000000000000081526004016116be9493929190612d2f565b60405180910390fd5b8181035f5f8581526020019081526020015f205f8b73ffffffffffffffffffffffffffffffffffffffff1673ffffffffffffffffffffffffffffffffffffffff1681526020019081526020015f2081905550505b5f73ffffffffffffffffffffffffffffffffffffffff168773ffffffffffffffffffffffffffffffffffffffff16146117b057805f5f8481526020019081526020015f205f8973ffffffffffffffffffffffffffffffffffffffff1673ffffffffffffffffffffffffffffffffffffffff1681526020019081526020015f205f8282546117a89190612d72565b925050819055505b50508060010190506115c5565b506001835103611878575f6117db5f85610f2190919063ffffffff16565b90505f6117f15f85610f2190919063ffffffff16565b90508573ffffffffffffffffffffffffffffffffffffffff168773ffffffffffffffffffffffffffffffffffffffff168473ffffffffffffffffffffffffffffffffffffffff167fc3d58168c5ae7397731d063d5bbf3d657854427343f4c083240f7aacaa2d0f628585604051611869929190612c27565b60405180910390a450506118f7565b8373ffffffffffffffffffffffffffffffffffffffff168573ffffffffffffffffffffffffffffffffffffffff168273ffffffffffffffffffffffffffffffffffffffff167f4a39dc06d4c0dbc64b70af90fd698a233a518aa5d07e595d983b8c0526c8f7fb86866040516118ee929190612da5565b60405180910390a45b5050505050565b5f8473ffffffffffffffffffffffffffffffffffffffff163b1115611aa5578373ffffffffffffffffffffffffffffffffffffffff1663f23a6e6187878686866040518663ffffffff1660e01b815260040161195e959493929190612e2c565b6020604051808303815f875af192505050801561199957506040513d601f19601f820116820180604052508101906119969190612e98565b60015b611a1a573d805f81146119c7576040519150601f19603f3d011682016040523d82523d5f602084013e6119cc565b606091505b505f815103611a1257846040517f57f447ce000000000000000000000000000000000000000000000000000000008152600401611a099190612cef565b60405180910390fd5b805160208201fd5b63f23a6e6160e01b7bffffffffffffffffffffffffffffffffffffffffffffffffffffffff1916817bffffffffffffffffffffffffffffffffffffffffffffffffffffffff191614611aa357846040517f57f447ce000000000000000000000000000000000000000000000000000000008152600401611a9a9190612cef565b60405180910390fd5b505b505050505050565b5f8473ffffffffffffffffffffffffffffffffffffffff163b1115611c54578373ffffffffffffffffffffffffffffffffffffffff1663bc197c8187878686866040518663ffffffff1660e01b8152600401611b0d959493929190612ec3565b6020604051808303815f875af1925050508015611b4857506040513d601f19601f82011682018060405250810190611b459190612e98565b60015b611bc9573d805f8114611b76576040519150601f19603f3d011682016040523d82523d5f602084013e611b7b565b606091505b505f815103611bc157846040517f57f447ce000000000000000000000000000000000000000000000000000000008152600401611bb89190612cef565b60405180910390fd5b805160208201fd5b63bc197c8160e01b7bffffffffffffffffffffffffffffffffffffffffffffffffffffffff1916817bffffffffffffffffffffffffffffffffffffffffffffffffffffffff191614611c5257846040517f57f447ce000000000000000000000000000000000000000000000000000000008152600401611c499190612cef565b60405180910390fd5b505b505050505050565b5f604051905090565b5f5ffd5b5f5ffd5b5f73ffffffffffffffffffffffffffffffffffffffff82169050919050565b5f611c9682611c6d565b9050919050565b611ca681611c8c565b8114611cb0575f5ffd5b50565b5f81359050611cc181611c9d565b92915050565b5f819050919050565b611cd981611cc7565b8114611ce3575f5ffd5b50565b5f81359050611cf481611cd0565b92915050565b5f5f60408385031215611d1057611d0f611c65565b5b5f611d1d85828601611cb3565b9250506020611d2e85828601611ce6565b9150509250929050565b611d4181611cc7565b82525050565b5f602082019050611d5a5f830184611d38565b92915050565b5f7fffffffff0000000000000000000000000000000000000000000000000000000082169050919050565b611d9481611d60565b8114611d9e575f5ffd5b50565b5f81359050611daf81611d8b565b92915050565b5f60208284031215611dca57611dc9611c65565b5b5f611dd784828501611da1565b91505092915050565b5f8115159050919050565b611df481611de0565b82525050565b5f602082019050611e0d5f830184611deb565b92915050565b5f5ffd5b5f5ffd5b5f601f19601f8301169050919050565b7f4e487b71000000000000000000000000000000000000000000000000000000005f52604160045260245ffd5b611e6182611e1b565b810181811067ffffffffffffffff82111715611e8057611e7f611e2b565b5b80604052505050565b5f611e92611c5c565b9050611e9e8282611e58565b919050565b5f67ffffffffffffffff821115611ebd57611ebc611e2b565b5b611ec682611e1b565b9050602081019050919050565b828183375f83830152505050565b5f611ef3611eee84611ea3565b611e89565b905082815260208101848484011115611f0f57611f0e611e17565b5b611f1a848285611ed3565b509392505050565b5f82601f830112611f3657611f35611e13565b5b8135611f46848260208601611ee1565b91505092915050565b5f60208284031215611f6457611f63611c65565b5b5f82013567ffffffffffffffff811115611f8157611f80611c69565b5b611f8d84828501611f22565b91505092915050565b5f60208284031215611fab57611faa611c65565b5b5f611fb884828501611ce6565b91505092915050565b5f81519050919050565b5f82825260208201905092915050565b8281835e5f83830152505050565b5f611ff382611fc1565b611ffd8185611fcb565b935061200d818560208601611fdb565b61201681611e1b565b840191505092915050565b5f6020820190508181035f8301526120398184611fe9565b905092915050565b5f5f5f6060848603121561205857612057611c65565b5b5f61206586828701611cb3565b935050602061207686828701611ce6565b925050604061208786828701611ce6565b9150509250925092565b5f819050919050565b6120a381612091565b81146120ad575f5ffd5b50565b5f813590506120be8161209a565b92915050565b5f602082840312156120d9576120d8611c65565b5b5f6120e6848285016120b0565b91505092915050565b6120f881612091565b82525050565b5f6020820190506121115f8301846120ef565b92915050565b5f67ffffffffffffffff82111561213157612130611e2b565b5b602082029050602081019050919050565b5f5ffd5b5f61215861215384612117565b611e89565b9050808382526020820190506020840283018581111561217b5761217a612142565b5b835b818110156121a457806121908882611ce6565b84526020840193505060208101905061217d565b5050509392505050565b5f82601f8301126121c2576121c1611e13565b5b81356121d2848260208601612146565b91505092915050565b5f67ffffffffffffffff8211156121f5576121f4611e2b565b5b6121fe82611e1b565b9050602081019050919050565b5f61221d612218846121db565b611e89565b90508281526020810184848401111561223957612238611e17565b5b612244848285611ed3565b509392505050565b5f82601f8301126122605761225f611e13565b5b813561227084826020860161220b565b91505092915050565b5f5f5f5f5f60a0868803121561229257612291611c65565b5b5f61229f88828901611cb3565b95505060206122b088828901611cb3565b945050604086013567ffffffffffffffff8111156122d1576122d0611c69565b5b6122dd888289016121ae565b935050606086013567ffffffffffffffff8111156122fe576122fd611c69565b5b61230a888289016121ae565b925050608086013567ffffffffffffffff81111561232b5761232a611c69565b5b6123378882890161224c565b9150509295509295909350565b5f5f6040838503121561235a57612359611c65565b5b5f612367858286016120b0565b925050602061237885828601611cb3565b9150509250929050565b5f67ffffffffffffffff82111561239c5761239b611e2b565b5b602082029050602081019050919050565b5f6123bf6123ba84612382565b611e89565b905080838252602082019050602084028301858111156123e2576123e1612142565b5b835b8181101561240b57806123f78882611cb3565b8452602084019350506020810190506123e4565b5050509392505050565b5f82601f83011261242957612428611e13565b5b81356124398482602086016123ad565b91505092915050565b5f5f6040838503121561245857612457611c65565b5b5f83013567ffffffffffffffff81111561247557612474611c69565b5b61248185828601612415565b925050602083013567ffffffffffffffff8111156124a2576124a1611c69565b5b6124ae858286016121ae565b9150509250929050565b5f81519050919050565b5f82825260208201905092915050565b5f819050602082019050919050565b6124ea81611cc7565b82525050565b5f6124fb83836124e1565b60208301905092915050565b5f602082019050919050565b5f61251d826124b8565b61252781856124c2565b9350612532836124d2565b805f5b8381101561256257815161254988826124f0565b975061255483612507565b925050600181019050612535565b5085935050505092915050565b5f6020820190508181035f8301526125878184612513565b905092915050565b61259881611de0565b81146125a2575f5ffd5b50565b5f813590506125b38161258f565b92915050565b5f5f604083850312156125cf576125ce611c65565b5b5f6125dc85828601611cb3565b92505060206125ed858286016125a5565b9150509250929050565b5f5f6040838503121561260d5761260c611c65565b5b5f61261a85828601611cb3565b925050602061262b85828601611cb3565b9150509250929050565b5f5f5f5f5f60a0868803121561264e5761264d611c65565b5b5f61265b88828901611cb3565b955050602061266c88828901611cb3565b945050604061267d88828901611ce6565b935050606061268e88828901611ce6565b925050608086013567ffffffffffffffff8111156126af576126ae611c69565b5b6126bb8882890161224c565b9150509295509295909350565b7f4e487b71000000000000000000000000000000000000000000000000000000005f52602260045260245ffd5b5f600282049050600182168061270c57607f821691505b60208210810361271f5761271e6126c8565b5b50919050565b5f819050815f5260205f209050919050565b5f6020601f8301049050919050565b5f82821b905092915050565b5f600883026127817fffffffffffffffffffffffffffffffffffffffffffffffffffffffffffffffff82612746565b61278b8683612746565b95508019841693508086168417925050509392505050565b5f819050919050565b5f6127c66127c16127bc84611cc7565b6127a3565b611cc7565b9050919050565b5f819050919050565b6127df836127ac565b6127f36127eb826127cd565b848454612752565b825550505050565b5f5f905090565b61280a6127fb565b6128158184846127d6565b505050565b5b818110156128385761282d5f82612802565b60018101905061281b565b5050565b601f82111561287d5761284e81612725565b61285784612737565b81016020851015612866578190505b61287a61287285612737565b83018261281a565b50505b505050565b5f82821c905092915050565b5f61289d5f1984600802612882565b1980831691505092915050565b5f6128b5838361288e565b9150826002028217905092915050565b6128ce82611fc1565b67ffffffffffffffff8111156128e7576128e6611e2b565b5b6128f182546126f5565b6128fc82828561283c565b5f60209050601f83116001811461292d575f841561291b578287015190505b61292585826128aa565b86555061298c565b601f19841661293b86612725565b5f5b828110156129625784890151825560018201915060208501945060208101905061293d565b8683101561297f578489015161297b601f89168261288e565b8355505b6001600288020188555050505b505050505050565b7f4e487b71000000000000000000000000000000000000000000000000000000005f52601260045260245ffd5b7f4e487b71000000000000000000000000000000000000000000000000000000005f52601160045260245ffd5b5f6129f882611cc7565b9150612a0383611cc7565b925082612a1357612a12612994565b5b828204905092915050565b7f4e487b71000000000000000000000000000000000000000000000000000000005f52603260045260245ffd5b5f81905092915050565b7f68747470733a2f2f697066732e696f2f697066732f00000000000000000000005f82015250565b5f612a89601583612a4b565b9150612a9482612a55565b601582019050919050565b5f8154612aab816126f5565b612ab58186612a4b565b9450600182165f8114612acf5760018114612ae457612b16565b60ff1983168652811515820286019350612b16565b612aed85612725565b5f5b83811015612b0e57815481890152600182019150602081019050612aef565b838801955050505b50505092915050565b7f2f000000000000000000000000000000000000000000000000000000000000005f82015250565b5f612b53600183612a4b565b9150612b5e82612b1f565b600182019050919050565b5f612b7382611fc1565b612b7d8185612a4b565b9350612b8d818560208601611fdb565b80840191505092915050565b7f2e6a736f6e0000000000000000000000000000000000000000000000000000005f82015250565b5f612bcd600583612a4b565b9150612bd882612b99565b600582019050919050565b5f612bed82612a7d565b9150612bf98285612a9f565b9150612c0482612b47565b9150612c108284612b69565b9150612c1b82612bc1565b91508190509392505050565b5f604082019050612c3a5f830185611d38565b612c476020830184611d38565b9392505050565b612c5781611c8c565b82525050565b5f604082019050612c705f830185612c4e565b612c7d6020830184612c4e565b9392505050565b7f636f6c6c656374696f6e2e6a736f6e00000000000000000000000000000000005f82015250565b5f612cb8600f83612a4b565b9150612cc382612c84565b600f82019050919050565b5f612cd98284612a9f565b9150612ce482612cac565b915081905092915050565b5f602082019050612d025f830184612c4e565b92915050565b5f604082019050612d1b5f830185612c4e565b612d2860208301846120ef565b9392505050565b5f608082019050612d425f830187612c4e565b612d4f6020830186611d38565b612d5c6040830185611d38565b612d696060830184611d38565b95945050505050565b5f612d7c82611cc7565b9150612d8783611cc7565b9250828201905080821115612d9f57612d9e6129c1565b5b92915050565b5f6040820190508181035f830152612dbd8185612513565b90508181036020830152612dd18184612513565b90509392505050565b5f81519050919050565b5f82825260208201905092915050565b5f612dfe82612dda565b612e088185612de4565b9350612e18818560208601611fdb565b612e2181611e1b565b840191505092915050565b5f60a082019050612e3f5f830188612c4e565b612e4c6020830187612c4e565b612e596040830186611d38565b612e666060830185611d38565b8181036080830152612e788184612df4565b90509695505050505050565b5f81519050612e9281611d8b565b92915050565b5f60208284031215612ead57612eac611c65565b5b5f612eba84828501612e84565b91505092915050565b5f60a082019050612ed65f830188612c4e565b612ee36020830187612c4e565b8181036040830152612ef58186612513565b90508181036060830152612f098185612513565b90508181036080830152612f1d8184612df4565b9050969550505050505056fea2646970667358221220186bbc10faed86c5dfb5f663b38373e2ff27169a7efabd4d18ead6f5c023b50664736f6c634300081c0033",
  "linkReferences": {},
  "deployedLinkReferences": {},
  "immutableReferences": {},
  "inputSourceName": "project/contracts/PersonalityToken.sol",
  "buildInfoId": "solc-0_8_28-9cb56358fdec17de5567dc0a0af701d7e1c19f04"
}