{
  "_format": "hh3-artifact-1",
  "contractName": "QuizManager",
  "sourceName": "contracts/QuizManager.sol",
  "abi": [
    {
      "inputs": [
        {
          "internalType": "address",
          "name": "_personalityToken",
          "type": "address"
        }
      ],
      "stateMutability": "nonpayable",
      "type": "constructor"
    },
    {
      "inputs": [
        {
          "internalType": "address",
          "name": "owner",
          "type": "address"
        }
      ],
      "name": "OwnableInvalidOwner",
      "type": "error"
    },
    {
      "inputs": [
        {
          "internalType": "address",
          "name": "account",
          "type": "address"
        }
      ],
      "name": "OwnableUnauthorizedAccount",
      "type": "error"
    },
    {
      "anonymous": false,
      "inputs": [
        {
          "indexed": true,
          "internalType": "address",
          "name": "previousOwner",
          "type": "address"
        },
        {
          "indexed": true,
          "internalType": "address",
          "name": "newOwner",
          "type": "address"
        }
      ],
      "name": "OwnershipTransferred",
      "type": "event"
    },
    {
      "anonymous": false,
      "inputs": [
        {
          "indexed": true,
          "internalType": "uint256",
          "name": "quizId",
          "type": "uint256"
        },
        {
          "indexed": true,
          "internalType": "address",
          "name": "by",
          "type": "address"
        }
      ],
      "name": "QuizActivated",
      "type": "event"
    },
    {
      "anonymous": false,
      "inputs": [
        {
          "indexed": true,
          "internalType": "uint256",
          "name": "quizId",
          "type": "uint256"
        },
        {
          "indexed": true,
          "internalType": "address",
          "name": "user",
          "type": "address"
        },
        {
          "indexed": false,
          "internalType": "string",
          "name": "personality",
          "type": "string"
        },
        {
          "indexed": false,
          "internalType": "uint256",
          "name": "tokenId",
          "type": "uint256"
        }
      ],
      "name": "QuizCompleted",
      "type": "event"
    },
    {
      "anonymous": false,
      "inputs": [
        {
          "indexed": true,
          "internalType": "uint256",
          "name": "quizId",
          "type": "uint256"
        },
        {
          "indexed": false,
          "internalType": "string",
          "name": "quizHash",
          "type": "string"
        },
        {
          "indexed": false,
          "internalType": "uint256",
          "name": "personalitiesCount",
          "type": "uint256"
        }
      ],
      "name": "QuizCreated",
      "type": "event"
    },
    {
      "anonymous": false,
      "inputs": [
        {
          "indexed": true,
          "internalType": "uint256",
          "name": "quizId",
          "type": "uint256"
        },
        {
          "indexed": true,
          "internalType": "address",
          "name": "by",
          "type": "address"
        }
      ],
      "name": "QuizDeactivated",
      "type": "event"
    },
    {
      "inputs": [
        {
          "internalType": "uint256",
          "name": "_quizId",
          "type": "uint256"
        }
      ],
      "name": "activateQuiz",
      "outputs": [],
      "stateMutability": "nonpayable",
      "type": "function"
    },
    {
      "inputs": [
        {
          "internalType": "uint256",
          "name": "_quizId",
          "type": "uint256"
        },
        {
          "internalType": "string",
          "name": "_quizPersonality",
          "type": "string"
        }
      ],
      "name": "completeQuiz",
      "outputs": [],
      "stateMutability": "nonpayable",
      "type": "function"
    },
    {
      "inputs": [
        {
          "internalType": "string",
          "name": "_quizHash",
          "type": "string"
        },
        {
          "internalType": "string[]",
          "name": "_personalities",
          "type": "string[]"
        }
      ],
      "name": "createQuiz",
      "outputs": [],
      "stateMutability": "nonpayable",
      "type": "function"
    },
    {
      "inputs": [
        {
          "internalType": "uint256",
          "name": "_quizId",
          "type": "uint256"
        }
      ],
      "name": "deactiveQuiz",
      "outputs": [],
      "stateMutability": "nonpayable",
      "type": "function"
    },
    {
      "inputs": [
        {
          "internalType": "uint256",
          "name": "_quizId",
          "type": "uint256"
        }
      ],
      "name": "getQuizInfo",
      "outputs": [
        {
          "internalType": "uint256",
          "name": "",
          "type": "uint256"
        },
        {
          "internalType": "string",
          "name": "",
          "type": "string"
        },
        {
          "internalType": "bool",
          "name": "",
          "type": "bool"
        }
      ],
      "stateMutability": "view",
      "type": "function"
    },
    {
      "inputs": [
        {
          "internalType": "address",
          "name": "",
          "type": "address"
        },
        {
          "internalType": "uint256",
          "name": "",
          "type": "uint256"
        }
      ],
      "name": "hasParticipated",
      "outputs": [
        {
          "internalType": "bool",
          "name": "",
          "type": "bool"
        }
      ],
      "stateMutability": "view",
      "type": "function"
    },
    {
      "inputs": [],
      "name": "owner",
      "outputs": [
        {
          "internalType": "address",
          "name": "",
          "type": "address"
        }
      ],
      "stateMutability": "view",
      "type": "function"
    },
    {
      "inputs": [],
      "name": "personalityToken",
      "outputs": [
        {
          "internalType": "contract PersonalityToken",
          "name": "",
          "type": "address"
        }
      ],
      "stateMutability": "view",
      "type": "function"
    },
    {
      "inputs": [],
      "name": "quizIdCounter",
      "outputs": [
        {
          "internalType": "uint256",
          "name": "",
          "type": "uint256"
        }
      ],
      "stateMutability": "view",
      "type": "function"
    },
    {
      "inputs": [],
      "name": "renounceOwnership",
      "outputs": [],
      "stateMutability": "nonpayable",
      "type": "function"
    },
    {
      "inputs": [
        {
          "internalType": "address",
          "name": "newOwner",
          "type": "address"
        }
      ],
      "name": "transferOwnership",
      "outputs": [],
      "stateMutability": "nonpayable",
      "type": "function"
    }
  ],
  "bytecode": "0x608060405234801561000f575f5ffd5b506040516121123803806121128339818101604052810190610031919061028d565b335f73ffffffffffffffffffffffffffffffffffffffff168173ffffffffffffffffffffffffffffffffffffffff16036100a2575f6040517f1e4fbdf700000000000000000000000000000000000000000000000000000000815260040161009991906102c7565b60405180910390fd5b6100b18161016e60201b60201c565b505f73ffffffffffffffffffffffffffffffffffffffff168173ffffffffffffffffffffffffffffffffffffffff1603610120576040517f08c379a00000000000000000000000000000000000000000000000000000000081526004016101179061033a565b60405180910390fd5b8060015f6101000a81548173ffffffffffffffffffffffffffffffffffffffff021916908373ffffffffffffffffffffffffffffffffffffffff160217905550600160028190555050610358565b5f5f5f9054906101000a900473ffffffffffffffffffffffffffffffffffffffff169050815f5f6101000a81548173ffffffffffffffffffffffffffffffffffffffff021916908373ffffffffffffffffffffffffffffffffffffffff1602179055508173ffffffffffffffffffffffffffffffffffffffff168173ffffffffffffffffffffffffffffffffffffffff167f8be0079c531659141344cd1fd0a4f28419497f9722a3daafe3b4186f6b6457e060405160405180910390a35050565b5f5ffd5b5f73ffffffffffffffffffffffffffffffffffffffff82169050919050565b5f61025c82610233565b9050919050565b61026c81610252565b8114610276575f5ffd5b50565b5f8151905061028781610263565b92915050565b5f602082840312156102a2576102a161022f565b5b5f6102af84828501610279565b91505092915050565b6102c181610252565b82525050565b5f6020820190506102da5f8301846102b8565b92915050565b5f82825260208201905092915050565b7f696e76616c696420746f6b656e206164647265737300000000000000000000005f82015250565b5f6103246015836102e0565b915061032f826102f0565b602082019050919050565b5f6020820190508181035f83015261035181610318565b9050919050565b611dad806103655f395ff3fe608060405234801561000f575f5ffd5b50600436106100a7575f3560e01c806371d1c0201161006f57806371d1c020146101395780638acdccf81461016b5780638da5cb5b14610189578063b8f15451146101a7578063f2fde38b146101c5578063f4afaff5146101e1576100a7565b80630e8f6091146100ab578063359211b4146100c7578063403861a1146100f75780636f73a5a214610113578063715018a61461012f575b5f5ffd5b6100c560048036038101906100c09190610ecc565b6101fd565b005b6100e160048036038101906100dc9190610f51565b610333565b6040516100ee9190610fa9565b60405180910390f35b610111600480360381019061010c9190610ecc565b61035d565b005b61012d600480360381019061012891906111e0565b610493565b005b6101376107f2565b005b610153600480360381019061014e9190610ecc565b610805565b604051610162939291906112c5565b60405180910390f35b610173610923565b604051610180919061135c565b60405180910390f35b610191610948565b60405161019e9190611384565b60405180910390f35b6101af61096f565b6040516101bc919061139d565b60405180910390f35b6101df60048036038101906101da91906113b6565b610975565b005b6101fb60048036038101906101f691906113e1565b6109f9565b005b610205610d39565b5f60035f8381526020019081526020015f205f01540361025a576040517f08c379a000000000000000000000000000000000000000000000000000000000815260040161025190611485565b60405180910390fd5b6001151560035f8381526020019081526020015f206002015f9054906101000a900460ff161515146102c1576040517f08c379a00000000000000000000000000000000000000000000000000000000081526004016102b8906114ed565b60405180910390fd5b5f60035f8381526020019081526020015f206002015f6101000a81548160ff0219169083151502179055503373ffffffffffffffffffffffffffffffffffffffff16817f9b8cd45e929c382aee96bd657beefa3ed6232cb7b536f18e32d68091040d85d060405160405180910390a350565b6004602052815f5260405f20602052805f5260405f205f915091509054906101000a900460ff1681565b610365610d39565b5f60035f8381526020019081526020015f205f0154036103ba576040517f08c379a00000000000000000000000000000000000000000000000000000000081526004016103b190611485565b60405180910390fd5b5f151560035f8381526020019081526020015f206002015f9054906101000a900460ff16151514610420576040517f08c379a000000000000000000000000000000000000000000000000000000000815260040161041790611555565b60405180910390fd5b600160035f8381526020019081526020015f206002015f6101000a81548160ff0219169083151502179055503373ffffffffffffffffffffffffffffffffffffffff16817fead92c0643eb7431d765175bf6d41471b56e5bae885753652c1dc21c60e3774860405160405180910390a350565b61049b610d39565b5f8251116104de576040517f08c379a00000000000000000000000000000000000000000000000000000000081526004016104d5906115bd565b60405180910390fd5b5f815111610521576040517f08c379a000000000000000000000000000000000000000000000000000000000815260040161051890611625565b60405180910390fd5b5f5f90505b8151811015610645575f82828151811061054357610542611643565b5b6020026020010151511161058c576040517f08c379a0000000000000000000000000000000000000000000000000000000008152600401610583906116ba565b60405180910390fd5b5f60018261059a9190611705565b90505b8251811015610637578281815181106105b9576105b8611643565b5b6020026020010151805190602001208383815181106105db576105da611643565b5b6020026020010151805190602001200361062a576040517f08c379a000000000000000000000000000000000000000000000000000000000815260040161062190611782565b60405180910390fd5b808060010191505061059d565b508080600101915050610526565b505f60035f60025481526020019081526020015f209050600254815f01819055505f816002015f6101000a81548160ff021916908315150217905550828160010190816106929190611994565b505f5f90505b825181101561070d575f816103e8845f01546106b49190611a63565b6106be9190611705565b905080836003018584815181106106d8576106d7611643565b5b60200260200101516040516106ed9190611ade565b908152602001604051809103902081905550508080600101915050610698565b5060015f9054906101000a900473ffffffffffffffffffffffffffffffffffffffff1673ffffffffffffffffffffffffffffffffffffffff1663ff6f9496826001016040518263ffffffff1660e01b815260040161076b9190611b75565b5f604051808303815f87803b158015610782575f5ffd5b505af1158015610794573d5f5f3e3d5ffd5b5050505060025f8154809291906107aa90611b95565b9190505550805f01547f4fa53befad9cb42bae61de12bde559d3e6b7eec35be7c02061f1ee54c1f51beb8484516040516107e5929190611bdc565b60405180910390a2505050565b6107fa610d39565b6108035f610dc0565b565b5f60605f5f60035f8681526020019081526020015f205f01540361085e576040517f08c379a000000000000000000000000000000000000000000000000000000000815260040161085590611485565b60405180910390fd5b5f60035f8681526020019081526020015f209050805f015481600101826002015f9054906101000a900460ff16818054610897906117cd565b80601f01602080910402602001604051908101604052809291908181526020018280546108c3906117cd565b801561090e5780601f106108e55761010080835404028352916020019161090e565b820191905f5260205f20905b8154815290600101906020018083116108f157829003601f168201915b50505050509150935093509350509193909250565b60015f9054906101000a900473ffffffffffffffffffffffffffffffffffffffff1681565b5f5f5f9054906101000a900473ffffffffffffffffffffffffffffffffffffffff16905090565b60025481565b61097d610d39565b5f73ffffffffffffffffffffffffffffffffffffffff168173ffffffffffffffffffffffffffffffffffffffff16036109ed575f6040517f1e4fbdf70000000000000000000000000000000000000000000000000000000081526004016109e49190611384565b60405180910390fd5b6109f681610dc0565b50565b5f60035f8481526020019081526020015f205f015403610a4e576040517f08c379a0000000000000000000000000000000000000000000000000000000008152600401610a4590611485565b60405180910390fd5b6001151560035f8481526020019081526020015f206002015f9054906101000a900460ff16151514610ab5576040517f08c379a0000000000000000000000000000000000000000000000000000000008152600401610aac90611c54565b60405180910390fd5b5f60035f8481526020019081526020015f2060030182604051610ad89190611ade565b90815260200160405180910390205403610b27576040517f08c379a0000000000000000000000000000000000000000000000000000000008152600401610b1e90611cbc565b60405180910390fd5b60045f3373ffffffffffffffffffffffffffffffffffffffff1673ffffffffffffffffffffffffffffffffffffffff1681526020019081526020015f205f8381526020019081526020015f205f9054906101000a900460ff1615610bc0576040517f08c379a0000000000000000000000000000000000000000000000000000000008152600401610bb790611d24565b60405180910390fd5b5f60035f8481526020019081526020015f2060030182604051610be39190611ade565b9081526020016040518091039020549050600160045f3373ffffffffffffffffffffffffffffffffffffffff1673ffffffffffffffffffffffffffffffffffffffff1681526020019081526020015f205f8581526020019081526020015f205f6101000a81548160ff02191690831515021790555060015f9054906101000a900473ffffffffffffffffffffffffffffffffffffffff1673ffffffffffffffffffffffffffffffffffffffff1663156e29f63383866040518463ffffffff1660e01b8152600401610cb693929190611d42565b5f604051808303815f87803b158015610ccd575f5ffd5b505af1158015610cdf573d5f5f3e3d5ffd5b505050503373ffffffffffffffffffffffffffffffffffffffff16837fd93b85ecf71b7c44554efe1f630b296c58767b000ac23bf06723d8ed312961ee8484604051610d2c929190611bdc565b60405180910390a3505050565b610d41610e81565b73ffffffffffffffffffffffffffffffffffffffff16610d5f610948565b73ffffffffffffffffffffffffffffffffffffffff1614610dbe57610d82610e81565b6040517f118cdaa7000000000000000000000000000000000000000000000000000000008152600401610db59190611384565b60405180910390fd5b565b5f5f5f9054906101000a900473ffffffffffffffffffffffffffffffffffffffff169050815f5f6101000a81548173ffffffffffffffffffffffffffffffffffffffff021916908373ffffffffffffffffffffffffffffffffffffffff1602179055508173ffffffffffffffffffffffffffffffffffffffff168173ffffffffffffffffffffffffffffffffffffffff167f8be0079c531659141344cd1fd0a4f28419497f9722a3daafe3b4186f6b6457e060405160405180910390a35050565b5f33905090565b5f604051905090565b5f5ffd5b5f5ffd5b5f819050919050565b610eab81610e99565b8114610eb5575f5ffd5b50565b5f81359050610ec681610ea2565b92915050565b5f60208284031215610ee157610ee0610e91565b5b5f610eee84828501610eb8565b91505092915050565b5f73ffffffffffffffffffffffffffffffffffffffff82169050919050565b5f610f2082610ef7565b9050919050565b610f3081610f16565b8114610f3a575f5ffd5b50565b5f81359050610f4b81610f27565b92915050565b5f5f60408385031215610f6757610f66610e91565b5b5f610f7485828601610f3d565b9250506020610f8585828601610eb8565b9150509250929050565b5f8115159050919050565b610fa381610f8f565b82525050565b5f602082019050610fbc5f830184610f9a565b92915050565b5f5ffd5b5f5ffd5b5f601f19601f8301169050919050565b7f4e487b71000000000000000000000000000000000000000000000000000000005f52604160045260245ffd5b61101082610fca565b810181811067ffffffffffffffff8211171561102f5761102e610fda565b5b80604052505050565b5f611041610e88565b905061104d8282611007565b919050565b5f67ffffffffffffffff82111561106c5761106b610fda565b5b61107582610fca565b9050602081019050919050565b828183375f83830152505050565b5f6110a261109d84611052565b611038565b9050828152602081018484840111156110be576110bd610fc6565b5b6110c9848285611082565b509392505050565b5f82601f8301126110e5576110e4610fc2565b5b81356110f5848260208601611090565b91505092915050565b5f67ffffffffffffffff82111561111857611117610fda565b5b602082029050602081019050919050565b5f5ffd5b5f61113f61113a846110fe565b611038565b9050808382526020820190506020840283018581111561116257611161611129565b5b835b818110156111a957803567ffffffffffffffff81111561118757611186610fc2565b5b80860161119489826110d1565b85526020850194505050602081019050611164565b5050509392505050565b5f82601f8301126111c7576111c6610fc2565b5b81356111d784826020860161112d565b91505092915050565b5f5f604083850312156111f6576111f5610e91565b5b5f83013567ffffffffffffffff81111561121357611212610e95565b5b61121f858286016110d1565b925050602083013567ffffffffffffffff8111156112405761123f610e95565b5b61124c858286016111b3565b9150509250929050565b61125f81610e99565b82525050565b5f81519050919050565b5f82825260208201905092915050565b8281835e5f83830152505050565b5f61129782611265565b6112a1818561126f565b93506112b181856020860161127f565b6112ba81610fca565b840191505092915050565b5f6060820190506112d85f830186611256565b81810360208301526112ea818561128d565b90506112f96040830184610f9a565b949350505050565b5f819050919050565b5f61132461131f61131a84610ef7565b611301565b610ef7565b9050919050565b5f6113358261130a565b9050919050565b5f6113468261132b565b9050919050565b6113568161133c565b82525050565b5f60208201905061136f5f83018461134d565b92915050565b61137e81610f16565b82525050565b5f6020820190506113975f830184611375565b92915050565b5f6020820190506113b05f830184611256565b92915050565b5f602082840312156113cb576113ca610e91565b5b5f6113d884828501610f3d565b91505092915050565b5f5f604083850312156113f7576113f6610e91565b5b5f61140485828601610eb8565b925050602083013567ffffffffffffffff81111561142557611424610e95565b5b611431858286016110d1565b9150509250929050565b7f7175697a20646f6573206e6f74206578697374730000000000000000000000005f82015250565b5f61146f60148361126f565b915061147a8261143b565b602082019050919050565b5f6020820190508181035f83015261149c81611463565b9050919050565b7f7175697a20616c726561647920696e61637469766500000000000000000000005f82015250565b5f6114d760158361126f565b91506114e2826114a3565b602082019050919050565b5f6020820190508181035f830152611504816114cb565b9050919050565b7f7175697a20616c726561647920616374697665000000000000000000000000005f82015250565b5f61153f60138361126f565b915061154a8261150b565b602082019050919050565b5f6020820190508181035f83015261156c81611533565b9050919050565b7f656d707479207175697a206861736800000000000000000000000000000000005f82015250565b5f6115a7600f8361126f565b91506115b282611573565b602082019050919050565b5f6020820190508181035f8301526115d48161159b565b9050919050565b7f6e6f20706572736f6e616c69746965732070726f7669646564000000000000005f82015250565b5f61160f60198361126f565b915061161a826115db565b602082019050919050565b5f6020820190508181035f83015261163c81611603565b9050919050565b7f4e487b71000000000000000000000000000000000000000000000000000000005f52603260045260245ffd5b7f656d70747920706572736f6e616c6974790000000000000000000000000000005f82015250565b5f6116a460118361126f565b91506116af82611670565b602082019050919050565b5f6020820190508181035f8301526116d181611698565b9050919050565b7f4e487b71000000000000000000000000000000000000000000000000000000005f52601160045260245ffd5b5f61170f82610e99565b915061171a83610e99565b9250828201905080821115611732576117316116d8565b5b92915050565b7f6475706c696361746520706572736f6e616c69747900000000000000000000005f82015250565b5f61176c60158361126f565b915061177782611738565b602082019050919050565b5f6020820190508181035f83015261179981611760565b9050919050565b7f4e487b71000000000000000000000000000000000000000000000000000000005f52602260045260245ffd5b5f60028204905060018216806117e457607f821691505b6020821081036117f7576117f66117a0565b5b50919050565b5f819050815f5260205f209050919050565b5f6020601f8301049050919050565b5f82821b905092915050565b5f600883026118597fffffffffffffffffffffffffffffffffffffffffffffffffffffffffffffffff8261181e565b611863868361181e565b95508019841693508086168417925050509392505050565b5f61189561189061188b84610e99565b611301565b610e99565b9050919050565b5f819050919050565b6118ae8361187b565b6118c26118ba8261189c565b84845461182a565b825550505050565b5f5f905090565b6118d96118ca565b6118e48184846118a5565b505050565b5b81811015611907576118fc5f826118d1565b6001810190506118ea565b5050565b601f82111561194c5761191d816117fd565b6119268461180f565b81016020851015611935578190505b6119496119418561180f565b8301826118e9565b50505b505050565b5f82821c905092915050565b5f61196c5f1984600802611951565b1980831691505092915050565b5f611984838361195d565b9150826002028217905092915050565b61199d82611265565b67ffffffffffffffff8111156119b6576119b5610fda565b5b6119c082546117cd565b6119cb82828561190b565b5f60209050601f8311600181146119fc575f84156119ea578287015190505b6119f48582611979565b865550611a5b565b601f198416611a0a866117fd565b5f5b82811015611a3157848901518255600182019150602085019450602081019050611a0c565b86831015611a4e5784890151611a4a601f89168261195d565b8355505b6001600288020188555050505b505050505050565b5f611a6d82610e99565b9150611a7883610e99565b9250828202611a8681610e99565b91508282048414831517611a9d57611a9c6116d8565b5b5092915050565b5f81905092915050565b5f611ab882611265565b611ac28185611aa4565b9350611ad281856020860161127f565b80840191505092915050565b5f611ae98284611aae565b915081905092915050565b5f8154611b00816117cd565b611b0a818661126f565b9450600182165f8114611b245760018114611b3a57611b6c565b60ff198316865281151560200286019350611b6c565b611b43856117fd565b5f5b83811015611b6457815481890152600182019150602081019050611b45565b808801955050505b50505092915050565b5f6020820190508181035f830152611b8d8184611af4565b905092915050565b5f611b9f82610e99565b91507fffffffffffffffffffffffffffffffffffffffffffffffffffffffffffffffff8203611bd157611bd06116d8565b5b600182019050919050565b5f6040820190508181035f830152611bf4818561128d565b9050611c036020830184611256565b9392505050565b7f7175697a206973206e6f206c6f6e6765722061637469766500000000000000005f82015250565b5f611c3e60188361126f565b9150611c4982611c0a565b602082019050919050565b5f6020820190508181035f830152611c6b81611c32565b9050919050565b7f696e76616c696420706572736f6e616c697479207479706500000000000000005f82015250565b5f611ca660188361126f565b9150611cb182611c72565b602082019050919050565b5f6020820190508181035f830152611cd381611c9a565b9050919050565b7f616c7265616479207061727469636970617465640000000000000000000000005f82015250565b5f611d0e60148361126f565b9150611d1982611cda565b602082019050919050565b5f6020820190508181035f830152611d3b81611d02565b9050919050565b5f606082019050611d555f830186611375565b611d626020830185611256565b611d6f6040830184611256565b94935050505056fea264697066735822122015da981b6bb753aa6ca36319fd3d9b4148d017bb1e2f09c07c50c620287169c964736f6c634300081c0033",
  "linkReferences": {},
  "deployedLinkReferences": {},
  "immutableReferences": {},
  "inputSourceName": "project/contracts/QuizManager.sol",
  "buildInfoId": "solc-0_8_28-9cb56358fdec17de5567dc0a0af701d7e1c19f04"
}